:1000000000140020B90B0000874C0000A50B000075
:10001000A50B0000A50B0000A50B000000000000D0
:10002000000000000000000000000000310D000092
:10003000A50B000000000000CD0C0000A50B000087
:10004000F50E0000F50E0000F50E0000F50E0000A4
:10005000F50E0000F50E0000F50E0000F50E000094
:10006000F50E0000F50E0000F50E0000F50E000084
:10007000F50E0000F50E0000F50E0000F50E000074
:10008000F50E0000F50E0000F50E0000F50E000064
:10009000F50E0000F50E0000F50E0000F50E000054
:1000A000F50E0000F50E0000F50E0000F50E000044
:1000B000F50E0000F50E0000F50E0000F50E000034
:1000C000F50E0000F50E0000F50E0000F50E000024
:1000D000F50E0000F50E0000F50E0000F50E000014
:1000E000F50E0000F50E0000F50E0000F50E000004
:1000F000F50E0000F50E0000F50E0000F50E0000F4
:1001000053B94AB9002908BF00281CBF4FF0FF317E
:100110004FF0FF3000F00CB8ADF1080C6DE904CEE3
:1001200000F008F8DDF804E0DDE9022304B07047D0
:10013000704700BF2DE9F04786468C460846089E6A
:10014000154674461946002B40F0C2808542B2FA2B
:1001500082F245D94AB1C2F1200300FA02FC2EFA1C
:1001600003F3954043EA0C0C94404FEA154EA8B2B5
:10017000BCFBFEF8230C0EFB18CC08FB00F943EA8D
:100180000C43994528D9EB1808F1FF3704D299455B
:1001900002D9A8F102072B44A3EB0903A4B2B3FBD5
:1001A000FEFC0EFB1C330CFB00F044EA0344A042AF
:1001B00014D92C190CF1FF3304D2A04202D9ACF1AE
:1001C00002032C44241A43EA07401EB1D440002302
:1001D00034607360BDE8F0874746DDE76346F1E7CA
:1001E00092BB431B01214FEA154EAFB2B3FBFEFC9D
:1001F000200C0EFB1C330CFB07F840EA0343984528
:1002000062D9EB180CF1FF3004D2984502D9ACF159
:1002100002002B44A3EB0803A4B2B3FBFEFC0EFBCD
:100220001C330CFB07F744EA0344A7424ED92C19B0
:100230000CF1FF3304D2A74202D9ACF102032C44E3
:10024000E41B43EA0040C0E7C2F1200320FA03F1B7
:10025000954090402EFA03F303434FEA154EAFB298
:10026000B1FBFEFC0EFB1C10190C0CFB07F841EA5D
:100270000041884504FA02F422D969180CF1FF30D4
:1002800004D2884502D9ACF102002944A1EB08014F
:100290009BB2B1FBFEFC0EFB1C110CFB07F743EA03
:1002A00001439F420ED9EB180CF1FF3104D29F425B
:1002B00002D9ACF102012B44DB1B41EA004192E779
:1002C0006046E3E76146F7E76046A3E76346B7E7C2
:1002D000834206D916B9002108467BE7C6E900E04B
:1002E000F9E7B3FA83F78FB9834201D3724508D88F
:1002F000BEEB020460EB030301209C461EB9002103
:1003000068E73846FAE7C6E9004CF8E7C7F1200C81
:10031000BB4022FA0CF41C432EFA0CF120FA0CF329
:10032000B84001434FEA14490EFA07F5B3FBF9F858
:100330001FFA84FE09FB18300B0C08FB0EFA43EA87
:1003400000439A4502FA07F240D9E31808F1FF305A
:1003500004D29A4502D9A8F102002344A3EB0A0370
:1003600089B2B3FBF9F809FB183308FB0EFE41EA2A
:1003700003418E452CD9611808F1FF3304D28E4514
:1003800002D9A8F10203214443EA0040A0FB0298ED
:10039000A1EB0E014145CE46434602D306D14D4561
:1003A00004D2B9EB020E68EB04030138002EA6D08C
:1003B000B5EB0E0261EB030101FA0CFC22FA07F324
:1003C0004CEA0303F940C6E9003198E74046C5E727
:1003D0004346D9E7014B1B68184700BF00000020C7
:1003E000014B1860704700BF0000002030B585B099
:1003F00004460D4610220021684606F03AF8022312
:100400008DF802302A46044B01932146684604F0D9
:100410000BF805B030BD00BFD503000080B5054620
:100420000E461746984603F055FD034606F09CF825
:10043000DFF81890044649F8003042463046394605
:10044000A84754F8090000F02BFC00BF080000008A
:100450002DE9F047058B04462807904611D4022960
:1004600005F0070540F0CC80204604F02CFB78B165
:100470000138218B042811D8DFE800F0C2106D8507
:10048000950001290CBF45F0100545F02005258396
:1004900088F31188BFF36F8FBDE8F08701F0070A7A
:1004A000AA4500F0A5800027B9463E46A368002B68
:1004B00000F0BC8041F00801218388F31188BFF36C
:1004C0006F8FA168002900F0BA800D68002900F044
:1004D000B680D1F80480334652462046C047002DEE
:1004E00076D02B6829461D46F0E701F007035A1F16
:1004F000012A1BD8002221F00701062B276889B2A8
:10050000C4E9002209D13B4603E0628B01326283D9
:100510001B68002BF9D141F002012183204604F031
:10052000D2FA00287AD041F0200176E0042B0AD1DB
:1005300021F0070189B22183204604F0C4FA10B1EA
:1005400041F020012183218B01F0070AAA454FD0F9
:100550000027B946AAE7236921F0070141F0060107
:10056000062DD3F8009021832DD1B9F1000F3FD093
:1005700041F00801218388F31188BFF36F8F3A4956
:100580002046C84729E021F00701236941F0040112
:1005900089B2042DD3F804902183E6D000273E468B
:1005A0004FF0040A82E721F00701236941F00501B9
:1005B00089B2052DD3F808902183D6D000273E4676
:1005C0004FF0050A72E700273E464FF0060A6DE736
:1005D0002B4687E7B9F1000FD1D1EFF31188202323
:1005E00083F31288BFF36F8F238B23F008032383D9
:1005F000258BEA062ED525F01003238305F0070589
:100600006669218B002EBFF670AF00232768C4E90E
:10061000003321F0070141F001012183218B01F01A
:10062000070AAA454FF000097FF440AF002F9CD085
:1006300041F00801218388F31188BFF36F8F002FE9
:10064000C8D03D68394633465246204604F067FA22
:100650002F46F4E7AB067FF51BAF25F0200323837D
:1006600005F0070500E700BF4B4B0000014B03609E
:1006700000207047C868000008B5044804F016FA66
:10068000BDE80840024804F011BA00BFAC6A00009F
:10069000E16A000008B50348034A0021121A04F079
:1006A000EAFA08BDA80100201C0600200748084AF5
:1006B000084908B5121A04F0E0FA0748074A084941
:1006C000BDE80840121A04F0D8BA00BF00000020AC
:1006D000A8010020BC6F00000000002000000020E6
:1006E000BC6F000038B505460C4699B1D1E901232D
:1006F0000F48096804F0DAF9D4E90423E1680D48E9
:1007000004F0D4F9E1690C4804F0D0F9A1690B4870
:1007100004F0CCF9012D05D1EFF30581084810391B
:1007200004F0C4F921462846BDE8384002F04EBE28
:100730000F6B00003F6B00006F6B00007F6B0000D1
:10074000AE6B000030BFFFF7FDBF00BF2DE9F041E9
:100750000B4EDFF8308006EB0807CC1B054632460F
:100760000949204605F077FEA01942460021083CC1
:1007700005F07FFEC5F8A44007F10800BDE8F08150
:100780000000000004000000BC680000054B5A692E
:100790009B689A421FBF044A536843F080535360DA
:1007A000704700BFCC05002000ED00E02DE9F843C4
:1007B000324D804632488946174604F077F9AB6AD5
:1007C000DE0622D52F4804F071F91124AB6A1D070B
:1007D00003D52D4804F06AF91224284DAB6A980716
:1007E00015D52A4804F062F96E6BAB6A190642D53A
:1007F0002748314604F05AF9B9F1000F03D0AB6A2B
:1008000023F08003AB62132403E01024DEE76FF0D3
:1008100015061A4DAB6ADA0703D51E4804F046F9EF
:100820001424AB6A9B0603D51B4804F03FF915243A
:10083000124B9A6AD50602D49A6A90070AD55B6869
:10084000190507D54146304600F00AFB10B180F388
:1008500009880224094B9A6A920642BF5A6A22F416
:1008600000525A629A6A42F0FF029A6200233B7079
:100870002046BDE8F8836FF01506C4E700ED00E000
:10088000C26B0000D96B00000D6C0000216C0000F1
:100890003A6C0000516C0000716C000010B51D4CEA
:1008A0001D4804F003F9A36A990130D51B4804F0F0
:1008B000FDF81E20A36ADA0103D5194804F0F6F802
:1008C0001F20144CA36A1B0303D5164804F0EEF84E
:1008D0002120A36A590303D5134804F0E7F8222026
:1008E0000C4CA36A9A0303D5104804F0DFF82320C8
:1008F000A36ADB0303D50E4804F0D8F82420054A88
:10090000936A6FEA03436FEA1343936210BD1D209D
:10091000D0E700BF00ED00E0A16C0000BA6C000061
:10092000CE6C0000E96C0000086D00002E6D000028
:10093000496D000070B5244C064624480D4604F06D
:10094000B5F8A36AD90435D5214804F0AFF81720CB
:10095000A36A1A0503D51F4804F0A8F818201A4CFA
:10096000A36A9B050FD51C4804F0A0F8A16BA36AED
:10097000180407D5194804F099F81EB1A36A23F4A6
:100980000043A3621920104CA36A590503D51448EB
:1009900004F08CF81A20A36ADA050DD5114804F08A
:1009A00085F81B20084A936A43F47F43936200232F
:1009B0002B7070BD1620CBE7A36A9B04F2D50A48C2
:1009C00004F074F81C20EDE700ED00E0756D000008
:1009D0008C6D00000D6C00009E6D0000B86D000075
:1009E000CE6D0000EA6D0000716C00002DE9F04151
:1009F0005B4B5F688AB00446C7F30806002585F3A1
:100A00001188BFF36F8F02F07F43B3F17F4F06D1A0
:100A100002F00C03082B13D1524804F047F80025CC
:100A20002C464FF00008F31E8DF80780092B00F2CA
:100A30008680DFE803F00A7A7E7684848484848268
:100A400010074CBF0C460125EBE74748444E04F025
:100A50002DF88DF80780F36A9A0704D5434804F00F
:100A600025F8002330E0F36A002B01DA4048F6E76E
:100A7000F36A5B00F5D53F4804F018F87369A26982
:100A800043F480737361BFF34F8FBFF36F8F73694C
:100A900032F8022C23F480737361BFF34F8FBFF3DE
:100AA0006F8F4DF602739A4209D0B36ADBB253B32B
:100AB0000DF1070201212046FFF778FE33E021689F
:100AC0002D4803F0F3FF23689DF80720C2B902AE5A
:100AD00004F1200720686168324603C20834BC4232
:100AE0001646F7D1099AB5B3C2F3080121B96FEAE6
:100AF00052226FEA4222099202A91846FFF7F2FD3C
:100B00000AB0BDE8F081B36A13F47F4F05D00DF150
:100B100007010120FFF70EFF05E0B36AB3F5803F40
:100B20009FD3FFF7BBFE0346CEE70DF1070200217E
:100B3000C1E70DF107010020ECE710488FE7104BEB
:100B40001049114817F4F87FA6F1100218BF194692
:100B500003F0ACFF85E722F4FF7222F00102CAE73E
:100B600000ED00E0316E00005D6E0000756E00006B
:100B7000976E0000A66E0000C66E0000E36E0000D7
:100B8000186E0000036E0000086F0000044B5A69E5
:100B900042F010025A615A6922F008025A61704705
:100BA00000ED00E0EFF30880EFF3098101B5724634
:100BB000FFF71CFF01BD00BF002080F31488BFF3C6
:100BC0006F8F114880F3088800201049087001F0E9
:100BD0003DFD00200E490860BFF34F8F00F02EF856
:100BE000202080F311880B484FF40461401880F3F3
:100BF0000988EFF314800221084380F31488BFF3BF
:100C00006F8F00F0FDF80000001400201706002090
:100C100094ED00E0400600200749D1F89020002321
:100C2000C2F307221846934200DB7047C1F89830A0
:100C3000C1F8A0000133F6E700ED00E008B572B698
:100C4000002383F31388FFF7E7FF144B4FF0FF32C5
:100C5000C3F88020C3F88420C3F88820C3F88C2010
:100C6000C3F89020C3F89420C3F89820C3F89C20C0
:100C7000C3F88021C3F88421C3F88821C3F88C21EC
:100C8000C3F89021C3F89421C3F89821C3F89C219C
:100C900062B6BFF34F8FBFF36F8F08BD00E100E076
:100CA000084B9B6883420BD1EFF3058343B1064B9E
:100CB0005A6842F080525A605A6A22F400425A62DC
:100CC00003F00EB9CC05002000ED00E015498A685C
:100CD0004FF030001044EFF3098C80E8F01F202023
:100CE00080F31288BFF36F8F0F4F4FF000664A6991
:100CF0008A603E60D2F8A4000C4C2060D2F8A800B4
:100D00000023C2F8A83080F3118804B5104600F023
:100D10000FF9BDE8044002F1300090E8F01F8CF3B9
:100D200009887047CC05002004ED00E0C8040020CD
:100D30001EF0040F0CBFEFF30880EFF30980816908
:100D400011F8021C0229FFD001B5724603F097FF8B
:100D500001BD00BF40B2002807DB044A410901235E
:100D600000F01F00834042F82130704700E100E0AE
:100D700040B200280CDB4309064900F01F00203375
:100D80000122824041F82320BFF34F8FBFF36F8FC2
:100D9000704700BF00E100E0054B420900F01F0072
:100DA00053F82220012303FA00F01040704700BFDF
:100DB00000E100E040B20028A8BF00F1604001F16E
:100DC0000101B8BF064B4FEA4111ACBF00F56140CD
:100DD00000F00F00C9B2B4BF195480F80013704777
:100DE00014ED00E0044B054A23F07F039360BFF34A
:100DF0004F8FBFF36F8F70470000000000ED00E0E1
:100E000008B5FFF7EFFF074AD2F8883023F47003E4
:100E1000C2F88830FFF73EFCFFF748FC00F05EF8B0
:100E200002F0A0FB00ED00E042F8203C009B42F8FD
:100E30001C3C0A49019B42F8183C029B42F8143CB6
:100E400021F001014FF0807342F8043C42F8081C85
:100E50000023203A0265C0F8A83070471D04000046
:100E60000A4A0346906878B113F1160FD0F894003F
:100E700005D0A0F140029A4205D8834203D28142B4
:100E800028BF002070470020704700BFCC0500201D
:100E900008B515460C4A0D4B9060D0F8A4201A6096
:100EA0000E4600F045F82C4686F309880020044BD6
:100EB00098472046002100220023024C20470000D2
:100EC000A34C00001D040000CC050020C804002035
:100ED000014B10221A61704700ED00E00448002326
:100EE0002021C2180133302B82F80013F9D170474A
:100EF00000E100E008B5EFF30583064A103B02EB82
:100F0000C30152F8330049688847BDE80840FFF73D
:100F10003DBC00BF9C660000024B034A0348012110
:100F200000F078B80000022000000020C86800002F
:100F3000D0F89420054B403A1A60054A4021C3E995
:100F400001121846012100F06FB800BFCC04002048
:100F500000000B15084AC2F898000B6823F01F0325
:100F6000034343F01003C2F89C308B6843F0010345
:100F7000C2F8A030704700BF00ED00E02DE9F0435B
:100F8000DFF8608085B00E461F4604464FF000092A
:100F9000B14523DA6068D8B13FB1411E08421BD188
:100FA0001F2819D92368194216D12368019303F029
:100FB0009BFEA36803430393D8F89050C5F307251D
:100FC000D0B2013DA84207D801A9FFF7C3FF421CD8
:100FD00009F101090C34DBE76FF01502104605B08A
:100FE000BDE8F08300ED00E0044B0522C3F8942037
:100FF000BFF34F8FBFF36F8F704700BF00ED00E06E
:10100000BFF35F8F024B0022C3F89420704700BFEC
:1010100000ED00E010B5034C01232278FFF7AEFF8E
:10102000207010BD0406002008B50B4A002312787A
:10103000FFF7A4FF10F1160F07D0084A0021D2F8DD
:101040009030C3F30723984200DB08BDC2F8980034
:10105000C2F8A0100130F2E70406002000ED00E025
:101060002DE9F043534B544CD3F890302568C3F32B
:1010700007239D4285B000F29A80FFF7C1FF002050
:101080000C2685421AD14D4C4D4F25706846FFF70E
:10109000EDFADFF82081DFF82C9106460025AE42FC
:1010A00013D1237843490020D1F89020C2F30722BE
:1010B000934276DBFFF798FF002042E0616806FB71
:1010C0000011FFF747FF0130DBE7009800EB051147
:1010D0004FEA051CCB683B40B3F5000F48D00AD857
:1010E000B3F5001F30D0B3F5800F36D0B3F5801FB5
:1010F00010D00135D3E7B3F1807F42D0B3F1007F48
:10110000F7D150F80C3088684A6803F0EDFD40F4E0
:10111000802009E050F80C3088684A6803F0E4FD4C
:1011200040F0885040F43020CDE901230390D8F8F6
:1011300090302078C3F30723013B98422AD96FF0FF
:10114000150005B0BDE8F08350F80C3088684A6897
:1011500003F0CAFD40EA0900E6E750F80C30886861
:101160004A6803F0C1FD40F0C06040F40030DBE7A6
:1011700050F80C3088684A6803F0B6FD40F0827081
:10118000D2E750F80C3088684A6803F0ADFD40F0B3
:101190008870C9E701A9FFF7DDFE237801332370CA
:1011A000A7E7C1F89830C1F8A00001337CE74FF001
:1011B000FF30C6E700ED00E0D46800000406002020
:1011C0000000F0FF0000081108B5024B1B689847AB
:1011D000002008BDD8040020034B044A186093780F
:1011E00043F0020393707047D804002004000020ED
:1011F00008B50649064821F00701C1F1005202F581
:10120000003203F0F9FB002008BD00BF8718002062
:10121000DC040020044A0123C2F840354FF080422C
:101220000020C2F87835704700E0014048B1054B16
:10123000054A1B68B3FBF2F35843044B43F0010328
:10124000184770478801002040420F00C068000026
:1012500008B50448044A3F23C0E9002301F09CFA82
:10126000002008BDE8040020FFFF0F00084B70B508
:10127000C31A0D4607499B100446594306484022AD
:1012800003F050FD2B4601462046BDE8704018474C
:1012900004050020B76DDBB6DC65000073B50C4CAF
:1012A0000C4A4023041B00930D460B460A49A41028
:1012B00061430646094803F061FD011E05DA304628
:1012C0002B4602B0BDE87040184702B070BD00BFA9
:1012D00004050020E74D0000B76DDBB6DC650000BB
:1012E0000022F8B5012105461046FFF763FD1048BE
:1012F00001F07AFA0446B8B901F096FA2F690D495F
:10130000384603F02FFC031E09DB01263E642D69DD
:10131000084905F11C0003F025FC031E02DA1C46F7
:101320002046F8BDEE64FBE76FF00404F8E700BF69
:1013300065140000F46800001FB500220123CDE908
:101340000223094ACDF800D06B46CDF804D003F053
:1013500043FD002805DB4FF480420023684602F07D
:101360009BF905B05DF804FBF94D000010B5EFF3F3
:101370001184202383F31288BFF36F8F074A136809
:1013800023F00201DB07116002D4012004F02EFAE1
:1013900084F31188BFF36F8F10BD00BF5405002088
:1013A00030B4104B0C2202FB003301460020D3E97D
:1013B0000E529863EFF31180202484F31288BFF358
:1013C0006F8F1C6C04F0C00444F002041C6480F3B2
:1013D0001188BFF36F8F1DB12B46034830BC1847EF
:1013E00030BC704704050020DC65000010B4EFF34A
:1013F0001182202383F31288BFF36F8F174801688F
:1014000041F002040460C80707D482F31188BFF3D7
:101410006F8F012010BC04F0E1B94FF08041D1F88A
:101420000C04D1F80C14C907EFD5EFF3118083F346
:101430001288BFF36F8F0A490B6C03F0C00343F0AF
:1014400002030B6480F31188BFF36F8F82F311885E
:10145000BFF36F8F002010BCFFF7A2BF5405002020
:101460000405002010B1012804D07047034B1B6C09
:101470005B0701D1FFF794BF704700BF0405002050
:101480002DE9F0413849BFF35B8F0746012251E84F
:10149000003F41E800200028F9D1BFF35B8F33B94A
:1014A000324933484B60CB608A6003F06EFB7B1E91
:1014B000012B2BD8012F07D14FF08043D3F81C34D8
:1014C00003F00303012B21D004F0C8FE0546F8B950
:1014D000284B1B78E3B14FF080430222C3F8082366
:1014E0000646DFF894804FF08044D4F81824D4F8EE
:1014F0001834D20315D503F00303012B01D0012FBB
:101500000FD155B386F31188BFF36F8FBDE8F0811B
:10151000EFF31186202383F31288BFF36F8F012529
:10152000DFE7ADB1304603F0D0FBD4F81835002B1F
:10153000DBD1D4F80421002AD7D0C4F80431D4F880
:1015400004310123C4F81835C8F88031A360CCE712
:101550000021212004F0F2FEE7E74FF08043022251
:10156000C3F80423D2E700BF00050020F0040020E8
:10157000200500201706002000E100E008B507481C
:1015800004F040FE38B10648FFF726FE0448FEF797
:1015900027FF002008BD6FF01200FBE73C6600004B
:1015A000A51500000A2838B5074D044604D1AB68DC
:1015B0000D215B6828469847AB6803485B68E1B239
:1015C0009847204638BD00BF3C660000F0B545682E
:1015D0001646A8682A7C01F01F0487B044EA42142A
:1015E000002869D0B6F5001F04D1214604F021FC83
:1015F000002052E001AA0020B6F5800F0190506053
:1016000037D1B3F1007F14BF052304238DF80430D4
:101610000023CDE904230393EB6823FA01F111F0D1
:1016200001010DF103073AD1B6F1A07F37D104F0E3
:101630001F03620903F5E07326D0012A3FD1214A36
:1016400052F82330DB072AD4A8683A46214604F032
:1016500066FB16301BD00297A86803AA214604F047
:101660002AFA002819DBA8680122214604F08EFB23
:10167000BEE7B3F1C06F05D0B3F1007F14BF012303
:101680000223C3E70323C1E74FF0A042D8E7A868CD
:10169000394601F035FA0028DDDA07B0F0BDA86858
:1016A0003A46214604F03BFB0028D5D19DF80310B3
:1016B000A86801F01FFACFE76FF08500EDE751F859
:1016C0002330FFDE00030050420970B5034602D00C
:1016D000012A17D070BD0D4E326951680029F9D02A
:1016E00003F01F0301250C689D400029F2D08A6891
:1016F0002A4002D04B68304698472CB123682146D7
:101700001C46F2E7024EE7E72346F8E71C660000B6
:10171000FC65000038B54568A86890B104F02EFB60
:10172000014670B9A86804F00DFB044658B902469A
:101730000649A86804F0F0FA224605210620FFF7C2
:1017400039FB002038BD6FF00400FBE7C91600002C
:101750002DE9F043476840F20636D0063B7C87B05F
:1017600002EA060654BFC2F3401C4FF0030C01F01E
:101770001F05B6F5837F144645EA43158DF803C06F
:1017800045D00DD8062E16D005D8A6B1022E40D0D1
:101790006FF0150038E0B6F5807FF9D101260AE038
:1017A00040F20222964236D0B6F5407F35D0B6F5EB
:1017B000007FEDD102260123220303FA01F12ED589
:1017C0007B68C3F80815B86890BB05F01F036D0966
:1017D0002BD0012D75D13D4A02EB830284F4803376
:1017E000D2F80017C3F30043C4F3404444EA43046F
:1017F00021F4E16144EA8C0421F0070144EA062364
:101800000B43C2F80037002007B0BDE8F08307267D
:10181000D1E70426CFE70526CDE70326CBE7630310
:1018200044BF7B68C3F80C15CDE74FF0A042D3E767
:101830000DF10202294604F072FA14F4403F80468A
:101840000CD1B868294604F09FFAB8F1000FDAD13C
:101850009DF80210B86801F04DF9D4E74FF0000987
:1018600001ABCDE90199CDE90439CDF80C90B86808
:1018700003AA294604F01FF94845C4DB14F40033D9
:1018800014D084F480349DF803308DF80E30C4F306
:1018900000448DF80C608DF80D40B8684B4603AAE3
:1018A000294604F0C0F90028CFDAACE7CDE90433CB
:1018B0000DF103030393B86803AA294604F0FBF86B
:1018C000F1E703F5E07350F82330FFDE000300502A
:1018D000036803F01F025B09026004D0012B034878
:1018E00018BF002070474FF0A04070470003005021
:1018F0002DE9F04FDFF88491DFF884A185B015461B
:10190000834600EB810140F2FF18594503D10020C6
:1019100005B0BDE8F08FDBF800305E04C3F3C322EE
:10192000C3F3080400F1A380444519F802704FEA9C
:10193000136312D0192B1ED94E2B40F09B80C5F893
:10194000144503A80394FFF7C3FF039B012606FA7F
:1019500003F3C0F8083532464EE0192B09D94E2B57
:1019600040F088804FF0FF33C5F814350BF1040BBD
:10197000CBE74FF0FF34192B7CD8DFE803F00D12D2
:1019800018311B21317B7B7B7B34617B7B7B7B7BB9
:101990007B7B7B7B646F7275C5F80C45601CD0D176
:1019A000E4E7C5F81445661CE0D00026D3E7C5F887
:1019B0000845F3E7621CC5F80845D7D0002604E0C7
:1019C000631CC5F80C45D1D0012603A80394FFF78A
:1019D0007FFF039B012202FA03F3C0F80C350BE0F2
:1019E000C5F81045DFE7C5F80845002FDBD1601CBE
:1019F000BCD0002632460627DBF80030019303F402
:101A00000040002818BF002203A8009218BF01263A
:101A10000394FFF75DFF039C019B009A00EB840099
:101A2000C3F3412CD0F800473B0243EA8C03134335
:101A300004EA0A04234343EA4603C0F8003795E763
:101A4000C5F80C45D1E7C5F86045621CDBF80030ED
:101A50008CD0C3F30043002BB6D072E7C5F86445C1
:101A6000F3E7C5F86845F0E7C5F86C45EDE76FF0BA
:101A700015004DE76FF085004AE700BF566F000084
:101A8000F0F8FCFF2DE9F041044647680D4604F0EC
:101A9000E5FB4FF0200888B9264B1B7873B164260C
:101AA000606803F034FAF0B9012003F044FE013E0F
:101AB000F6D10021212004F041FCF0E7EFF311867C
:101AC000314688F31288BFF36F8F606803F01FFA06
:101AD000A8B986F31188BFF36F8FEFE786F31188FB
:101AE000BFF36F8FE5E7EFF31186314688F3128875
:101AF000BFF36F8F606803F00AFA0028EED0FB692D
:101B00001D706368FA691B680020C3F84425012230
:101B1000C3F84825C3F82001D3F82041C3F8580181
:101B2000D3F858019A6081F31188BFF36F8FBDE835
:101B3000F08100BF170600202DE9F04F89B004693D
:101B40000093436801938B88074698040E4691469C
:101B50002AD44FF0FF324FF0FF3304F1100001F0B0
:101B60009BFD6660D7F81080D7F804A098F85D3028
:101B700023B1D8F800309E4200F0B080B6F804C01F
:101B80001CF4006F17D06FF08505236813B19B8894
:101B90009B0405D40023636004F1100001F048FDAC
:101BA000284609B0BDE8F08FA369002BD1D1636846
:101BB0009942CED1D6E71CF0090F02D06FF015057F
:101BC000E3E7CCF34513082BF8D13568A14B9D42D0
:101BD000F4D90AF1080BBBE80F000DF10C0EAEE8CA
:101BE0000F00DBF80030CEF800309B4B9D424ED901
:101BF0009A4B9D424ED99A4B9D424ED9994B9D424C
:101C00004ED9994B9D424ED9984B9D422CBF4FF0D7
:101C100000454FF080451CF0020F05950CF00403C1
:101C200044D0002B14BF032302238DF81830CCF3CB
:101C300000138DF81930DAF80030D3F80835591C44
:101C400012D01CF0020F03F01F00CCF340014FEA4A
:101C500053134FF0010230D163B3934240F0F3804D
:101C6000834B8240C3F80C2598F85D302BB1504669
:101C700001F036F9002388F85D307E4A434603A917
:101C8000504601F0FDF820B36FF004057DE74FF0FA
:101C90000075C0E74FF08065BDE74FF00065BAE71B
:101CA0004FF08055B7E74FF00055B4E7003B18BF41
:101CB0000123BAE74FF0A043D3E73BB1012B40F03B
:101CC000C5806B4B8240C3F80825CDE74FF0A04399
:101CD000F8E7012388F85D30C8F80060012384F834
:101CE0005C30019B996A4A1C02D0586A03F02EFBB3
:101CF000B9F1000F40F08780C4F834900023A3634B
:101D000004F1480204F1380104F1340003F0C1F990
:101D1000009B6064002B7FD1E3630023236404F104
:101D2000500204F1400104F13C0003F0B2F9E06418
:101D300020680023236348B183683BB10121083048
:101D400003F0BAF92368186904F040FA384603F042
:101D500053FA0023A06B1A46824266D10022256CFA
:101D60001146A94268D19342264638BF13464FF424
:101D7000FA5202FB03F556F8203B4FF000081B68AF
:101D8000B5FBF3F54FF4004CC835414640F2E7305F
:101D90004FF47A720023E5FB0C01FEF7B1F902461D
:101DA0000B46304601F078FC18B9256B15F1740F1D
:101DB00013D10198C4F8588001F092F884F85D803E
:101DC0003F696FF073053D6307F1200001F030FCBF
:101DD00087F85C80304601F085FC2368002B3FF4D7
:101DE000D4AE9A68002A3FF4D0AE998811F4805698
:101DF0007FF4CBAE186904F0E9F920683146083069
:101E000003F05AF9C1E6D9F800306363002B3FF4C0
:101E100075AFD9F8043072E7009B1B68E363002BB1
:101E20003FF47BAF009B5B6878E7616B01EBC2011D
:101E3000013249680B448FE7E06B00EBC1000131D0
:101E4000406802448DE7C1F80C15FFDE0023C3F89B
:101E50000835FAE747E801008FD003001FA107000B
:101E60003F420F007F841E00FF083D0000127A00F1
:101E7000000300506152000000F01F0240090DD025
:101E800001280ED10A4B03EB82030A4AD3F800075C
:101E9000024042EA8102C3F8002770474FF0A04396
:101EA000F1E702F5E072002353F82230FFDE00BFB5
:101EB00000030050F0F8FCFF2DE9F04F8DB09A467A
:101EC000436800938B8804690746980489469346C3
:101ED0002CD44FF0FF324FF0FF3304F1380001F003
:101EE000DBFBC4F82C907D68D7F810802B68019339
:101EF00098F8853023B1D8F82830994500F09E80B5
:101F0000B9F804E01EF4006F17D06FF08505A36ADE
:101F100013B19B889B0405D40023E36204F13800CD
:101F200001F086FB28460DB0BDE8F08F236C002B36
:101F3000CFD1E36A9942CCD1D5E71EF0090F02D088
:101F40006FF01505E3E7CEF34513082BF8D1D9F868
:101F500000C09C4B9C45F3D904350FCD02AE0FC693
:101F60000FCD0FC6019B634528BF63469C4695E88D
:101F70000300954B9C4586E803001BD2934B9C4580
:101F800018D2934B9C4515D2924B9C4500F2D080C1
:101F9000914B9C4500F2CE80904B9C4500F2CC804A
:101FA0008F4B9C4500F2CA808E498F4B8F4A8C45DF
:101FB00088BF13461EF0020F07930EF0040300F0D3
:101FC000BF80002B14BF032302238DF82030CEF3F3
:101FD00000138DF82130D8F80030D3F80835591C9B
:101FE00015D01EF0020F03F01F00CEF340014FEAA0
:101FF00053134FF0010240F0AA80002B00F0A480A0
:10200000934240F0D8807A4B8240C3F80C2598F870
:1020100085302BB1404601F0A1F9002388F88530C6
:10202000744A3B4602A9404603F0DDFF051EFFF659
:102030006EAF012388F88530C8F82890012384F812
:102040008430009BD96B4A1C02D0986B03F07EF958
:10205000BBF1000F40F08680C4F85CB0002323661B
:1020600004F1700204F1600104F15C0003F09BF9DB
:10207000E066BAF1000F7ED1C4F864A00023A36625
:1020800004F1780204F1680104F1640003F08BF9B3
:10209000002504F128062A46606701213046A5651F
:1020A00003F0C9F9384603F077FA206E2A462B462A
:1020B000834269D10023A56E1946A9426BD19A4289
:1020C00038BF1A464FF4FA5303FB02F5A36A4FF0E8
:1020D00000081B68B5FBF3F54FF4004CC8354146CA
:1020E00040F2E7304FF47A720023E5FB0C01FEF773
:1020F00007F804F1480602460B46304601F0CCFAD8
:10210000024618B9A56D15F1740F4BD12046C4F8DD
:10211000808001F023F984F885806FF073013846E0
:1021200003F028FA304601F0DDFA6FF07305EEE6B1
:10213000314B3FE7314B3DE7314B3BE7314B39E723
:10214000003B18BF012340E74FF0A0435CE733B1E9
:10215000012B33D1264B8240C3F8082557E74FF0B7
:10216000A043F8E7DBF80030E365002B3FF476AFDF
:10217000DBF8043073E7DAF800306366002B3FF4D5
:102180007DAFDAF804307AE7E16D01EBC30101338A
:1021900049680A448CE7606E00EBC1000131406879
:1021A00003448AE7002D3FF4B2AE38691146283067
:1021B00003F041F9ABE6C1F80C15FFDE0023C3F8CC
:1021C0000835FAE747E801000048E8010024F40078
:1021D00000127A00FF083D007F841E003F420F007E
:1021E0001FA107008FD0030048E8010090D0030032
:1021F000000300505956000000093D0080841E0075
:1022000040420F0020A1070070B5012383400E4A11
:10221000BFF35B8FDC4352E8001F01EA040542E88C
:102220000056002EF7D1BFF35B8F4FF4803282400F
:102230000648C0F80823BFF35F8FBFF36F8F0B42D0
:1022400014BF0120002070BD800500200010014057
:1022500070B40E49D1E90034D01AC31844F1000417
:1022600022F07F46C1E90034A6F50013B3F5400F14
:1022700009D2074B1B681A0A1B069C19054B42F131
:102280000005C3E9004570BC02F040B8B801002069
:1022900084050020C001002011B3BFF35B8F012330
:1022A000104A834052E800CF4CEA030C42E800C1D8
:1022B0000029F7D1BFF35B8F0B4A4FF48033834083
:1022C000C2F80433094BBFF35B8F1B68BFF35B8F0E
:1022D000C340DB0742BF064B4FF40032C3F8002176
:1022E000704700BF80050020001001407C050020E1
:1022F00000E100E00D4B1868010A0006BFF35F8F94
:102300000B4BD3F80435181841F10001B3F5801FC9
:102310000AD2084BD3E90023904271EB030303D2A6
:1023200010F1807041F10001704700BF840500206A
:1023300000100140C00100202DE9F04F85B0164685
:102340001F469DF840A00446FFF75EFF0190FFF78F
:10235000D1FFB04271EB070354D23E4B301A67EB0A
:102360000101984271F100014FD23B4B03EB041382
:10237000D3E902239F4208BF96425ED037494FF40B
:10238000803804F1500508FA04F8AD00C1F848831C
:102390002046ADB203F0BCF926F07F4B05F1804535
:1023A00004F5A87305F58835DC464FF00309029360
:1023B000029A2CF07F4341F82230C1F84483D1F8CF
:1023C0000435274A6FF00200C01A604420F07F40B5
:1023D000904232D9286868B1D1F804350393A3EB51
:1023E0000B0020F07F40B0F5000F26D9204603F007
:1023F0008FF9039BBAF1000F07D109EB030C09F128
:102400000109D5E7BAF1000F09D06FF01505204694
:102410000199FFF741FF284605B0BDE8F08F012381
:10242000104ABFF35B8FA34052E8000F184342E805
:1024300000010029F8D1BFF35B8F07490E982301F3
:1024400001EB0412C8500F9B5360C2E902670025DC
:10245000DDE700BF01008000A8010020001001405E
:10246000FDFF7F007C0500207FB51C4C1C4BC4F891
:102470000833C4F848331B4B00254FF0FF304FF0B2
:10248000FF31C4F80855C3E902014FF48033C4F8A2
:102490000433154B02264FF400320121C4F80463C3
:1024A0001120C3F880212A46FEF784FC1120FEF794
:1024B00051FC0E4A0123A360236013600C4B0D4AAC
:1024C0000093CDE9015500232846FFF735FF30463C
:1024D000FEF7D6FF284604B070BD00BF00100140D3
:1024E00003000F00A801002000E100E080050020AB
:1024F00051220000FFFF7F002DE9F7432F4CD4F855
:10250000043399070BD5D4F8043143B12C4A002386
:10251000C4F80431D4F80431136801331360D4F8DB
:102520000433DA0329D5BFF35B8F264B53E8002F22
:1025300022F0010143E800100028F7D1BFF35B8FC0
:10254000D30702D4D4F84031BBB10025C4F84051C0
:10255000D4F84031FFF7CEFEEFF31182202383F34E
:102560001288BFF36F8F184BD3E90267B042B941AD
:1025700006D282F31188BFF36F8F03B0BDE8F083FA
:102580004FF0FF384FF0FF39C3E90289D3E900105B
:102590001D604FF48033C4F84833C4F84051D4F878
:1025A000403182F31188BFF36F8F0029E5D000908E
:1025B00032463B4628468847DFE700BF001001400F
:1025C000840500207C050020A801002030B5431CB4
:1025D000124C85B005D08442A8BF0446012CB8BF78
:1025E0000124FFF787FE0E4B0C4DD3E90013401A70
:1025F000B0F5000F10D22218AA4228BF2A4652185E
:102600004FF0000007490091CDE9010043F10003BC
:10261000FFF792FE05B030BD2A46F0E7FFFF7F00CE
:10262000B80100205122000008B5FFF763FE024BFD
:102630001B68C01A08BD00BFB8010020024AD2F8CA
:102640000034002BFBD0704700E0014010B54FF084
:102650008053D3F830210D2A55D14FF0804100220C
:10266000C1F80C21C1F81021C1F83825464AD3F829
:102670000404C2F82005D3F80804C2F82405D3F8EE
:102680000C04C2F82805D3F81004C2F82C05D3F8BE
:102690001404C2F83005D3F81804C2F83405D3F88E
:1026A0001C04C2F84005D3F82004C2F84405D3F84E
:1026B0002404C2F84805D3F82804C2F84C05D3F81E
:1026C0002C04C2F85005D3F83004C2F85405D3F8EE
:1026D0003404C2F86005D3F83804C2F86405D3F8AE
:1026E0003C04C2F86805D3F84004C2F86C05D3F87E
:1026F0004434C2F87035D1F80034DB0709D56FF0E7
:102700000103C1F800344FF08053D3F830310D2B62
:102710000CD14FF08053D3F834313BB14FF010233C
:10272000D3F808224FF08043C3F858254FF0102308
:10273000D3F80022002A03DBD3F80432002B22DA7C
:10274000124901234FF01020C1F804351224FFF77D
:1027500075FFC0F80042FFF771FFC0F80442FFF7B1
:102760006DFF0023C1F80435FFF768FFBFF34F8FFB
:102770000749084BCA6802F4E0621343CB60BFF319
:102780004F8F00BFFDE710BD00C0004000E00140DA
:1027900000ED00E00400FA05014B1860704700BF2F
:1027A0008805002010B5054B1868144602F0C5FFD7
:1027B0000028A4BF2070002010BD00BF88050020A5
:1027C000024A01238340C2F80435704700F00140FB
:1027D000014B00201B6818478C050020014B1B682B
:1027E000184700BF8C05002010B50C4C237993B915
:1027F000012323710A4B2060002818BF184600F0FF
:1028000023F850B923680748002BBDE8104008BFE3
:10281000184600F05BB86FF0770010BD8C05002003
:10282000D1270000DD27000008B5064B1B683BB12F
:102830000020FEF7B1FA18B9BDE80840FEF78ABAE1
:1028400008BD00BF8C050020054B0246187918B959
:102850001A6001221A7170476FF07700704700BF4D
:10286000940500204FF080430022C3F80021D3F8E4
:102870000021094901221A60096811B1C3F8042333
:102880007047D3F80021002AFBD00022C3F80021B2
:10289000D3F80031704700BF940500204FF080430B
:1028A000D3F80423D2070DD5D3F8002152B100226A
:1028B000C3F80021D3F800210122C3F80823024BFA
:1028C0001B681847704700BF94050020074A13791A
:1028D00043B90121106011714FF080421846C2F8CF
:1028E000183570476FF07700704700BF9C050020D7
:1028F00010B54FF080431D4CD3F81814D3F81824AA
:1029000011F4803F19D002F00302012A03D00AB16A
:1029100002F099FF00224FF08043C3F818250022EF
:10292000C3F80421D3F8042101229A60226872B905
:10293000D3F80421002AFBD011E0D3F81424D107E6
:10294000E8D5D3F81C249207E2D422681AB10222F7
:10295000C3F8042310BDD3F80421002AFBD00022C1
:10296000C3F80421D3F80431F4E700BF9C0500202C
:10297000F8B54FF08043194FD3F80443012504F014
:102980001A04002604B9F8BDB4FA84F0C0F11F009F
:10299000830003F580739BB203F1804305FA00F2D4
:1029A000196824EA02040029ECD01E601B684FF06D
:1029B00080430128C3F808230CD1D3F81824D3F896
:1029C0001824920706D10222C3F81805C3F804237D
:1029D0009860D7E73B68C0B29847D3E79C050020D2
:1029E000036803F01F025B09026004D0012B034857
:1029F00018BF002070474FF0A04070470003005000
:102A0000034A430900F01F00D35C1844C0B270476A
:102A1000866F0000034611F0010030B5CCB213D12F
:102A2000A207C4F3400020D5124AD2F8200558600E
:102A30004FF08053C2F82005D3F830310D2B15D05C
:102A4000003818BF012010E04FF0A0414FF0805532
:102A5000D1F820251A60C1F82025D5F830510D2D68
:102A600008BFD1F82015002ADAD030BDD2F82035C1
:102A7000E6E700BF00030050F7B504460846FFF73D
:102A8000BFFF06B204EB46060D46B38ADB072BD523
:102A9000204602F0EDFF2946204602F047FF58B1DC
:102AA000204602F059FF276800B207EB800300229E
:102AB000C3F81025C3F810252946204602F075FFFB
:102AC0000021B18201A80195FFF78AFF019B00EB6D
:102AD0008300074BD0F80027134043F00203C0F8EF
:102AE0000037084603B0F0BD6FF01500FAE700BFED
:102AF000F0F8FCFF014802F03EBE00BF8C01002050
:102B000010B504480C4602F018FE0028A4BF20703F
:102B1000002010BD8C0100202DE9F04F804689B0C7
:102B200058F804ABDAF80413C9B28346082241F01E
:102B30000041504602F074FF051E2BDA00230321EA
:102B400006A8CDE90633FFF765FF644B01930DF14D
:102B500018090023019A009312F8013B6049019281
:102B6000DA0803F007038A5C22FA03F3DA071AD4BF
:102B7000009B09F10409A3B14FF000410022504627
:102B800002F04EFF032106A8FFF744FF0028DCD126
:102B900025F000450124002D40F08A8009B0BDE8F1
:102BA000F08F0123D6E7009B4E4A13440293D9F8D5
:102BB00000100029DCD0029B91FAA1F11C78B1FA37
:102BC00081F141EA44142046FFF71AFF0BEB400065
:102BD0000594878AC808BB0819F80020039301F000
:102BE0000701012303FA01F122EA010209F800209A
:102BF00005A8FFF7F5FE059A039B02F5E072C7F3FF
:102C0000820650F822205B073746C2F3014233D5D3
:102C1000D6B240463A46214602F0A8FE05A80594E1
:102C2000FFF7DEFE059B03F5E07350F82330C3F396
:102C300001439E4207D10021204602F068FE314642
:102C4000204602F064FE05A80594FFF7C9FE059B27
:102C5000012202FA03F3C0F820354FF08053D3F875
:102C600030310D2B01BFD0F82035D0F82035D0F809
:102C70002035D0F820359AE7022A0DD103212046CD
:102C800002F045FE06F00503012BDCD13A46214651
:102C9000404602F06BFED6E702212046039202F086
:102CA00036FE032EF2D0039A032ACCD1022EECE793
:102CB00095FAA5F3B3FA83F304FA03F225EA0205C1
:102CC00003F5A2720BEB43035AF82220B3F87010FD
:102CD000C2F30142404602F049FE5CE7966F0000F5
:102CE000846A0000966F0000036803F01F025B090E
:102CF000026004D0012B034818BF002070474FF03A
:102D0000A04070470003005007B5019001A8FFF7ED
:102D1000EBFF019B00EB8300054BD0F8002713402D
:102D200043F00303C0F8003703B05DF804FB00BFB5
:102D3000F0F8FCFF73B5CB7B0446002B38D10B7B3E
:102D40000878012B77D803F085F80B78019301A858
:102D5000FFF7CAFF019B00EB83003C4BD0F8002734
:102D6000134043F00103C0F800374878FF2804D02F
:102D700003F070F84878FFF7C7FF8B78FF2B0FD070
:102D800001A88D7B0193FFF7AFFF019B00EB830050
:102D90002E4BD0F80027134043EA8503C0F80037D4
:102DA000C878FF2804D003F048F8C878FFF7ACFFD4
:102DB00023792748CA78282505FB03039A770B7CDB
:102DC0009BB94B7825680E78FF2B18BF1A468B7875
:102DD000C5F8086508BF4FF0FF32FF2B08BF4FF062
:102DE000FF33C5F80C25C5F8103523688A68C3F889
:102DF00024254B7B0A7B2568003B18BF0123022A50
:102E00001CD0032A1DD0012A01D143F00203C5F8CA
:102E1000543523794979282202FB0303D977237992
:102E20005343C35883B1206840F3073002B0BDE874
:102E30007040FDF78FBF03F000F886E743F004030E
:102E4000E5E743F00603E2E702B070BDF0F8FCFFEF
:102E5000A405002007B5019001A8FFF745FF019BDD
:102E600000EB8300054BD0F80027134043F002032A
:102E7000C0F8003703B05DF804FB00BFF0F8FCFFBA
:102E80002DE9F04190F80480144C4FF0280C0CFB15
:102E900008FC04EB0C06074696F81CE0BEF1000F98
:102EA00018D144F80C20736041B1CB7B86F82530F3
:102EB000CB78B3774B79F377FFF73CFF3A68012380
:102EC000C2F80035282202FB0844002060772377EF
:102ED000BDE8F0816FF07700FAE700BFA40500209D
:102EE00070B50679194C056828237343E35833B14C
:102EF00045F30730FDF73CFF0423C5F808330023F2
:102F0000C5F80035282303FB064393F82530BBB9E9
:102F1000D5F80805FFF79EFFD5F81005421C01D033
:102F2000FFF798FFD5F80C05431C01D0FFF792FF7F
:102F3000282303FB0643987FFF2801D0FFF78AFF71
:102F4000282303FB06440023237770BDA40500203B
:102F50002DE9F84307793A4C28237B439046E21841
:102F60000E46517F8146002967D1E3580BB10123FA
:102F7000537796E80F00282505FB074505F10C0C53
:102F80008CE80F00A87F0023FF2885F8243001D0AB
:102F900002F060FF2823B8F1000F07D003FB0743BE
:102FA00000225A776FF08500BDE8F883D9F8005009
:102FB00003FB07430422C5F80823C3F82080C5F8A3
:102FC0000881D5F8082172689AB133681B78C5F872
:102FD0001C357368012B0ED933685B78C5F81C3536
:102FE00028237B43E65876B10423C5F80433002038
:102FF000DAE7DB7FEBE7F368012BF1D9282303FB4A
:103000000743DB7FEAE707EB870104EBC101D5F853
:103010000831002BFBD0C5F808612846D5F80831E7
:1030200002F025FF0028F2D1282303FB0744A07FEC
:10303000FF28DCD002F001FFD9E76FF00F00B3E703
:10304000A405002010B54FF040200023C0F808313F
:103050000A49D0F8083102F00AFF68B9887FFF28D2
:1030600001D002F0EAFE00234B770B72BDE810405E
:10307000D1E900310248184710BD00BFA405002067
:10308000AC050020036803F01F025B09026004D056
:10309000012B034818BF002070474FF0A040704735
:1030A000000300500F4B984219D00DD80E4B984298
:1030B00015D007D80D4B984211D00D4BC31A58426A
:1030C000584170470B4BF9E70B4B984207D004D897
:1030D0000A4B984203D00A4BF0E70A4BEEE7012077
:1030E000704700BF80841E0020A1070048E801004F
:1030F00090D0030040420F000024F40000093D007E
:1031000000127A000048E80137B51446421C054613
:1031100018D0012902D1BBB102F02FFF01A80195FF
:10312000FFF7B0FF019B0A4A00EB8300A300D0F831
:10313000005743EA41030B432A40134343F44073CF
:10314000C0F8003703B030BD02F024FFE6E700BF4F
:10315000F0F8FCFF2DE9F84F91F8213007460C46B6
:10316000002B00F0968091F822806569674B9D42A4
:1031700000F0A88000F29880654B9D4200F0A58089
:1031800000F28A80634B9D4200F0A280624B9D4218
:103190000CBF4FF080654FF0804594F8232097F8DE
:1031A000223062F3000387F82230227CDBB262F324
:1031B000410387F8223094F823600EBB237E2068F9
:1031C000012B94BF0023012301213246FFF79CFF0E
:1031D000606833463246FFF797FFA27EA068334609
:1031E0003146FFF791FF237CE06883F0010332460C
:1031F0000121FFF789FFE0690B463246FFF784FFA4
:1032000094F82130002B6CD04FF0FF337B6294F8A0
:10321000211094F812E0207E627E00296BD0E668CF
:10322000217C94F8249094F820C03B68B9F1000FF9
:1032300012D1D4E900BAD4F80890E469C3F808B50B
:10324000C3F80CA5C3F81095C3F86C45C3F8146512
:10325000C3F86815C3F86485003A18BF0122022834
:10326000C3F8C0E5C3F8245548D0032849D0012845
:1032700001D142F00202C3F85425C3F860C57B684F
:10328000002B41D03868BDE8F84F40F30730FDF718
:1032900061BD4FF0020868E7204B9D420CBF4FF024
:1032A00080554FF0804578E71D4B9D4213D01D4B54
:1032B0009D4213D01C4B9D420CBF4FF000454FF078
:1032C00080456AE74FF0005567E74FF0006564E717
:1032D0004FF0007561E74FF020655EE74FF0A055B5
:1032E0005BE7E3687B62227C97F8223062F341035C
:1032F00087F822308BE74FF0FF3692E742F0040266
:10330000B9E742F00602B6E7BDE8F88F80841E00F8
:1033100020A1070048E8010090D0030040420F00C0
:103320000024F4000048E80100127A00431C07B5AD
:103330000ED0019001A8FFF7A5FE019B00EB8300D2
:10334000054BD0F80027134043F00203C0F80037C4
:1033500003B05DF804FB00BFF0F8FCFF38B504468D
:10336000006840F30730FDF703FD636843B1214671
:10337000154A51F8043BC3F80823206802F017FEF1
:103380002368D3F80805D3F80C15D3F8105594F832
:103390002230DB0714D4FFF7C9FF2846FFF7C6FF2A
:1033A0000846FFF7C3FF606AFFF7C0FF2368D3F842
:1033B0006C05D3F81415FFF7B9FF0846FFF7B6FF01
:1033C000002384F8203038BD5201080038B5EFF3EF
:1033D0001185202383F31288BFF36F8F064B9C68FF
:1033E00002F023FF85F31188BFF36F8F2046BDE8FD
:1033F0003840FDF755BC00BFCC05002038B50A4B5E
:1034000053F82040013053F82050A54200D838BD71
:10341000606830B1037FDB0701D402F0DBFE0834C3
:10342000F3E723689847FAE7886A000070B52A4BEB
:103430002A4C2B4D012286B003201A70FFF7DEFFC5
:10344000FDF71AF90420FFF7D9FF2646AE4204F132
:10345000300410D300F04AFC204C224EAC4226D35C
:1034600000F058FC01F03DFA1F4A137B23F00103E2
:10347000137306B070BD54F80C3C059354F8103C1F
:10348000049354F8143C039354F8183C029354F8F2
:103490001C3C019354F8203C009354E90A2354E95E
:1034A0000C0100F04FFA54F8303C5E65CDE7D4E9EA
:1034B0000A23B3F1FF3F08BFB2F1FF3F05D052EA44
:1034C0000301206803D100F0E1FC3034C6E7314647
:1034D000183000F08BFEF8E7170600201C6800008B
:1034E0001C680000356300007802002070B5174E9C
:1034F000174D184986B0B02303FB0066164B0593A1
:1035000001220F23CDE903320023CDE90133142337
:1035100003FB005504464FF4C07000FB04110F4B31
:1035200000954FF4A072304600F00CFA737B0C4A01
:10353000EE6023F0040373734FF4046304FB03335E
:1035400013442C746B6006B070BD00BFC80100202E
:10355000CC050020800E0020986F00003162000032
:1035600040060020BFB50020FFF748FF284B83F33B
:103570000888284C284F636943F400736361002571
:10358000E02384F82230E57725766576A57684F801
:103590002050636A43F4E023636284F82350FDF70C
:1035A000F5FAFDF795FC4FF0FF33A362E362FDF7F8
:1035B00057FDFDF7B1FC1948194C00F065FA0120E0
:1035C000FFF71CFF0220FFF719FF00F0D7FB154B98
:1035D00015495C61154B05930123CDE903534FF465
:1035E00080623B46CDE901550095204600F0AAF9DE
:1035F000627B064622F004022046627302F06EFEF1
:103600002846FFF773FF3A4631462046FDF740FC57
:10361000800E002000ED00E02D3400002803002083
:1036200078020020CC050020001000209D6F0000D3
:1036300070B5EFF31186202383F31288BFF36F8FE9
:103640000468A0421BD0D4B1D4E9003213605A60A0
:10365000637B002523F002036373C4E90055A56072
:1036600004F1180002F0CBFE2046C4F8AC5002F082
:1036700035FE31460748BDE8704000F011BBD0E987
:1036800002329A4218BF0133836086F31188BFF378
:103690006F8F70BD1806002013B5EFF31181202441
:1036A00084F31288BFF36F8F846844B1013C846057
:1036B00081F31188BFF36F8F002002B010BD52EA72
:1036C000030406D181F31188BFF36F8F6FF00F00F1
:1036D000F3E7CDE900230246014800F0BFFAECE72A
:1036E000180600202DE9F0410546EFF3118720234D
:1036F00083F31288BFF36F8F00231E466FF00A0812
:103700002C68A54216D0ACB1D4E9003213605A60DF
:10371000637BA66023F002036373C4E9006604F1CF
:10372000180002F06CFEC4F8AC80204602F0D6FD12
:103730000123E5E70022AA602BB139460548BDE820
:10374000F04100F0ADBA87F31188BFF36F8FBDE889
:10375000F08100BF180600202DE9FF414F4E0446BE
:103760002027EFF3118887F31288BFF36F8FD4F807
:10377000B450F5B9022104F1CC0002F064FD002838
:1037800068D004F1C40500220121284602F0FDFDA5
:103790000028F8D1002302934FF0FF324FF0FF339F
:1037A000CDE90023414604F1BC023D4800F03AFC5B
:1037B000D7E7D4F8B8202B68C4F8B430954208BFD6
:1037C000C4F8B830D4F8CC3043F00203C4F8CC309D
:1037D000EB6823F0040343F00103EB606B6888F3AC
:1037E0001188BFF36F8F28469847EFF3118887F34E
:1037F0001288BFF36F8FEB68D80623F0010236D42E
:10380000EA60EB689A0716D5306823F00203EB6094
:1038100088B10368002170B14268954235D10368D0
:1038200069BB72683360824200D17360002340F844
:10383000083BFFF7FDFED4F8CC3023F00203C4F8B8
:10384000CC3088F31188BFF36F8FDB0589D400F08B
:103850009DFA86E7D4F8CC30D9069BD5C4F8CC00C5
:1038600088F31188BFF36F8F04B0BDE8F08123F0B7
:103870001103EB6005F11000FFF7DAFEC1E70B6002
:103880007368834208BF7160D0E723B11A680146AC
:1038900018461346BFE71A46F9E700BFF0050020B7
:1038A00018060020F0B589B004460020C4E92D00B8
:1038B0000E9D04F1BC00C4E92F0004F1C400C4E96A
:1038C000310055B32879002840F2011008BF0120CB
:1038D000C4F8CC0000204FF0FF364FF0FF37CDE9A1
:1038E0000330CDE90100CDE906670D4B0094204679
:1038F00000F09EF855B1296811B1204600F012F889
:103900006B791BB1237B43F001032373204600F046
:10391000BDFAC4F8B04009B0F0BD0120D8E700BF3F
:103920005937000010B5044608B9054B9C681F22A2
:1039300004F1740002F0A5FD002084F8930010BD8E
:10394000CC0500202DE9F04F073285B022F00702A8
:1039500004461E467F3200F15803C0E9163322F0B8
:103960003F02129B237300200D46119BDDF838A007
:10397000139FA06004213F2AC4E906006173A3736A
:10398000E07305F14009A2F1400B05D880F31188DE
:10399000BFF36F8F084602DF05EB02084146204661
:1039A000FCF7D4FE0730109B20F00700C4E9259BEC
:1039B000C4F89C0002930F9BA8EB000BCDE900A379
:1039C0005A46334629462046FDF72EFA0F9BA3663A
:1039D0004FF00008109BC4F85480C4E9186AE366ED
:1039E000EFF31182202181F31288BFF36F8F0F4D07
:1039F000296A21672C6282F31188BFF36F8F8FB120
:103A00001F22394604F1740002F03BFD84F89380D4
:103A1000AB680BB1D3F8A030C4F8A030584605B05D
:103A2000BDE8F08F84F87470F2E700BFCC05002089
:103A3000F0B587B000250595109D04950F9D039561
:103A40000E9D0295DDE912760D9D01950C9D009568
:103A50000446FFF777FFB6F1FF3F08BFB7F1FF3F1E
:103A600005D056EA070305D1204600F00FFA20469C
:103A700007B0F0BD3A46334604F11800014900F0A2
:103A8000B5FBF4E73563000040F2011383810023A6
:103A9000C0E92533C0F8A030014B9860704700BFE3
:103AA000CC0500200A4A93686FF00A01C3F8AC10F5
:103AB0000849C3F8A8004B6843F080534B600023CB
:103AC00083F31188BFF36F8F9368D3F8AC0070470E
:103AD000CC05002000ED00E070B590F90D20437B8F
:103AE000002A36DBD90634D11B4C63F07F03224613
:103AF000437352F8183FE169934207D1C0E90021AE
:103B00000860E06111E09942F8D01B68002BF5D005
:103B100090F90E5093F90E60B542F4D0AE42F2DD4A
:103B20005968C0E9003108605860A569954200D025
:103B300005B9E568A3685A7BD20604D1DA897F2AE1
:103B400001D9AA6932B1AB4202D0284600F0AAFAE4
:103B5000656170BD6361FCE7CC05002038B590F964
:103B60000D20437B002A014604DA03F07F034373F0
:103B700002F07AFB0D4D2A46AB6852F8184F94427A
:103B800000D004B9EC688B4207D05A7BD20604D12E
:103B9000DA897F2A01D9A2692AB1A34202D020463C
:103BA00000F080FA23466B6138BD00BFCC050020D1
:103BB000B3F1FF3F08BFB2F1FF3F03D00249183015
:103BC00000F014BB704700BF3563000070B590F97A
:103BD0000D20437B002A014604DA03F07F03437380
:103BE00002F042FB4B7B1C4C63F07F0322464B737D
:103BF00052F8183FE069934207D1C1E90020016003
:103C0000E16111E09842F8D01B68002BF5D091F9E2
:103C10000E5093F90E60B542F4D0AE42F2DD586812
:103C2000C1E9003001605960A569A368954200D0E0
:103C300005B9E5688B4207D05A7BD20604D1DA89F0
:103C40007F2A01D9AA692AB1AB4202D0284600F0E6
:103C500029FA2B46636170BDCC050020F8B50E4BE8
:103C60000C4611460D4A98681060DDE90667EFF3CF
:103C70001182202282F31288BFF36F8F9D6828463D
:103C800002F004FB284632463B46FFF791FF2046F0
:103C9000BDE8F840FFF706BFCC050020F80500207E
:103CA00049B9EFF3058030B9054B5A699B689A42D0
:103CB00001D0FFF7F7BE81F31188BFF36F8F704714
:103CC000CC050020034648B9EFF3058232B9064A15
:103CD00051699268914201D0FFF7E4BE83F31188E5
:103CE000BFF36F8F704700BFCC050020EFF3118149
:103CF000202383F31288BFF36F8F054B9A68D37B21
:103D0000013BD37381F31188BFF36F8F704700BFFE
:103D1000CC05002070B5EFF31186202383F31288C1
:103D2000BFF36F8F144DAB68DA7B0132DA732A462A
:103D300052F8184F944200D004B9EC685A7BD2066E
:103D400004D1DA897F2A01D9A2692AB1A34202D01B
:103D5000204600F0A7F923466B6186F31188BFF374
:103D60006F8FEFF31180202383F31288BFF36F8FDF
:103D7000BDE87040FFF7A6BFCC050020024B03F161
:103D80001802C3E906227047CC05002070B5EFF396
:103D90001186202383F31288BFF36F8F1B4CA16819
:103DA000E0690B68814214BF1A46002249680B6023
:103DB0005960A368E1692AB9154AC3E900210B607B
:103DC000E3610CE093F90E0092F90E50A84218D06E
:103DD000854216DD5168C3E900210B605360A56977
:103DE0000B4B9D4200D005B9E568A3689D4202D007
:103DF000284600F057F965613046BDE87040FFF78E
:103E000051BE8A42D8D01268D5E700BFCC05002049
:103E1000E4050020F8B550EA010306460C4603D13C
:103E2000FFF7B4FF0020F8BDEFF31187202383F3E1
:103E30001288BFF36F8F124D124BA8681860FFF7FE
:103E40008DFEA868104923463246183000F0CEF99E
:103E5000AA68537B43F00403537304463846FFF7C4
:103E600021FEAB68D3E90A23B3F1004F08BF002A53
:103E7000D8D102F0ECFA201A20EAE070D3E700BFB4
:103E8000CC050020F80500203563000038B5044655
:103E9000EFF31185202383F31288BFF36F8F437BE9
:103EA0005B070FD5183002F0AAFA637B23F00403F6
:103EB00020466373FFF710FE29460548BDE83840E9
:103EC000FFF7EEBE85F31188BFF36F8F38BD00BFDB
:103ED00018060020014B9868704700BFCC050020F1
:103EE0002DE9F8430446077BEFF31185202383F384
:103EF0001288BFF36F8F437B190705D585F31188AF
:103F0000BFF36F8FBDE8F883D90943F0080260D191
:103F10004273A36813B1204602F0AEF904F1180011
:103F200002F06DFAA66D04F15808B04511D04FF0BB
:103F3000000976B1304602F09FF906F1180002F050
:103F40005EFAC6F8AC903046FFF7C6FDA66DB045E8
:103F5000EFD1DFF8C480D8F808309C4241D1EFF3AC
:103F60000589B9F1000918BF4FF00109D8F81860A8
:103F70002A4A964200D00EB9D8F80C60B34202D05B
:103F8000304600F08FF82046C8F8146000F086FE36
:103F9000204600F0DFF8B9F1000F02D02048FFF70B
:103FA00073FDD8F808309C4231D1EFF3058373BB21
:103FB000227BD20718D42846FFF774FDFB07A1D552
:103FC000002383F31188BFF36F8F0423184602DFA9
:103FD00098E703F07F0343F00803437302F044F9CA
:103FE00097E74FF00009C1E785F31188BFF36F8FA2
:103FF00083F31188BFF36F8F0423184602DFEFF3BA
:104000001180202383F31288BFF36F8FD4E785F3E9
:104010001188BFF36F8FD1E7CC050020E4050020A5
:1040200028030020D3B5DDE90667089CCDE90067C9
:10403000FFF714FE1CB1034B9B681B69236002B0A1
:10404000D0BD00BFCC050020044BC01A044BC010EB
:104050005843044B01221A54704700BFD803002074
:10406000ABAAAAAA18060020C3897F2B12D80A4B34
:104070001B6863B1094B90F90E201B689A4209DB5B
:10408000437BDB0606D1064BC31A18BF012303F09E
:10409000010070470023FAE790010020FC05002092
:1040A000C801002070B50E4B0E4C1E7C06EB46037B
:1040B00004EBC3040546204602F0A1F90A4B002296
:1040C00028469A55FFF7D0FF48B1084B08491A68AF
:1040D000013A2046D317BDE8704000F087B870BDA4
:1040E000CC050020D80300201806002090010020F5
:1040F0004940000038B5EFF31185202383F312887F
:10410000BFF36F8F104B114A9C681068A04206D114
:10411000FFF7C8FF85F31188BFF36F8F38BD00210B
:104120001B7C11600A4AD35C002BF3D02046FFF7BA
:104130009BFF0028EED0637BDB0602D12046FFF711
:1041400045FD2046E4E700BFCC050020F80500202F
:1041500018060020EFF31181202383F31288BFF3A8
:104160006F8F0A4A136A834207D11B6F136281F370
:104170001188BFF36F8F70471346002BF7D01A6F6B
:104180008242F9D1026F1A67F1E700BFCC05002027
:10419000024B1868984208BF002070479401002025
:1041A000034B1B680BB9FEF73FBA0020704700BFF6
:1041B0000006002030B570B10B4B5B6898420AD006
:1041C000036843B1D3E90421D0E90445121941EB56
:1041D0000501C3E90421D0E9003213605A600023CD
:1041E000C0E9003330BD00BF94010020B3F1FF3FB0
:1041F00008BFB2F1FF3F2DE9F84F04469946154636
:104200001F467AD08160EFF31188202383F3128850
:10421000BFF36F8FB9F1000FDFF8E4A020DBFFF7E9
:10422000BFFFDAE90027013549F100092D1849EBF4
:10423000E073C4E90453AD18064643EB07074FF09B
:104240000109FFF7A5FFDFF8BCE0DEF804A0034694
:10425000EBB9C4E900EACAF80040CEF8044028E00F
:10426000DAE900126FF001035B1A4FF0FF3161EBE6
:1042700002025B1B62EB0902012B72F10001BCBF61
:1042800001230022C0E904324FF00009D9E7D3E945
:10429000041CD4E904208A4270EB0C0B24DA891A3E
:1042A0005A686CEB0000C3E90410C4E900321460E2
:1042B0005C60FFF76DFF84420ED1134B1B685BB946
:1042C000B9F1000F02D1FFF76BFF0646304602F04E
:1042D0007FF80021FEF77AF988F31188BFF36F8F1A
:1042E00028463946BDE8F88F521A60EB0C009A4513
:1042F000C4E90420ADD01B68AAE700252F46EFE7EC
:10430000F003002094010020000600202DE9F04772
:10431000EFF31185202383F31288BFF36F8FDFF84B
:10432000A490DFF8A480C9F80000FFF731FF002651
:104330000027D9F80030D8E900ECD91750B1D0E9FE
:104340000442A34271EB020A1CDAE41A62EB010296
:10435000C0E9044213EB0E034FF000044CEB0101E3
:104360002046C8E90031C9F8004002F031F8214682
:10437000FEF72CF985F31188BFF36F8FBDE8F04786
:10438000FFF7B8BE14EB0E024CEBE473C0E9046710
:10439000C8E90023FFF70EFF85F31188BFF36F8F85
:1043A00083689847EFF31185202383F31288BFF3C6
:1043B0006F8FD9F800301B1BC9F80030FFF7E8FEFB
:1043C000B7E700BF00060020F003002010B5EFF3B0
:1043D0001184202383F31288BFF36F8FFFF7E0FE71
:1043E000054A0346D2E90001181841EBE37184F352
:1043F0001188BFF36F8F10BDF003002007B5074B86
:104400000093074907484FF0FF334FF48062FFF7EE
:1044100049FA002003B05DF804FB00BFA06A000069
:1044200040140020F80300202DE9F04F8DB04368C0
:104430000293837815469A07804640F10D81002447
:104440000E78002E00F00A81252E0BD04B1C039312
:104450000134029B4146304698470028C0F2F6805E
:104460000399EDE74E788B1C252E0393F0D000279F
:10447000B946BB46BBF11F0F38D8A6F12003102B5D
:104480000AD8DFE803F02A090930090909210909D6
:104490000928092D09091F00A6F13003092B33D97A
:1044A0002A2E37D11BF0400F55F8043B40F0828094
:1044B000002BA7BF4BF0200B9946C3F100094BF02E
:1044C000280B01E04BF0010B039B13F8016B0393E6
:1044D000002ECFD130E04BF0020B4BF0040BF3E792
:1044E0004BF0080BF0E74BF0100BEDE7BBF17F0F43
:1044F00019D8A6F13003092BD2D81BF0400F03D0F6
:104500000A2101FB0737DFE70A2101FB09394BF0DC
:10451000200BD9E72E2E06D11BF0400F40F09E80D5
:104520004BF0400BD0E76C2E31D02BD8682E36D014
:104530006A2E3CD04C2E3AD0002F46F02003B8BF54
:104540002BF04002A3F16501BCBF1FFA82FB0027DC
:10455000022901D9612B2FD1073525F00705DFF896
:10456000ACA2083507271BF0080F66D00AEB070B33
:1045700056465E4563D1A4EB0A0A06EB0A02A9EB94
:1045800007096FE1742E9FD07A2E9DD0D4E71BF0DF
:10459000800F18BF4BF4007B4BF0800B94E71BF4AB
:1045A000807F18BF4BF4007B4BF4807B8CE74BF48F
:1045B000207B89E71F4687E7A6F16301122900F2F5
:1045C000F080DFE811F013004F00EE00EE00EE0087
:1045D000EE004F00EE00EE00EE00EE00EE00FE00FA
:1045E000E900EE00EE001B00EE00AF0055F8043BC2
:1045F0008DF8183001270DF1180AB4E755F804AB0F
:10460000834BBAF1000F08BF9A461BF0400F14BF4E
:1046100039464FF0FF31504601F043FF0746A2E70D
:10462000029B41462020984700280FDB013EB742FD
:10463000F6D34C44A41BB14698E74E46F7E716F86C
:10464000010B029B41469847002892DA98F8023005
:1046500043F0040388F802304FF0FF3420460DB0D9
:10466000BDE8F08F1BF0800F34D01BF4007F2CD0FE
:10467000073525F00705AA4669685AF8080B2BF09C
:1046800010050029ADB237DA404261EB410145F433
:1046900080650DF1180B0A235A4601F00EFFA0EBBE
:1046A0000B0301936B0662D5019B25F001019F422C
:1046B00089B240F3A180002E00F0998015F010021D
:1046C00040F09C80BB460D4623E0AA465AF8040BF6
:1046D000C117D4E7AA461BF4807F5AF8041B01D106
:1046E0000846F5E71BF4007F15BF48B208B241F356
:1046F000C01141F3C031C2E750EA0103C9D11BF038
:10470000400FC6D0002FC4D12BF0110295B2BB468A
:10471000019740F2064115EA01021CBF0BF1010BA3
:1047200000222CE02BF010021FFA82FB0A231BF060
:10473000800C49D01BF400711DBF073525F007051B
:10474000AA46AA461ABF5AF8080B69685AF8040B19
:1047500050EA010545D12BF016051BF0400FADB214
:1047600042D0002F40D12BF0170295B2019715F0DF
:10477000100248D0019B002E42D103F1010B290702
:104780005AD4EB0706D5D9456FDD0199A9EB0B0388
:104790005F18CB465B4649E04BF0100B10237826A0
:1047A000C5E7782B04D1C6F1780343F01003BEE7C8
:1047B000029B4146252098470028FFF647AF023468
:1047C00047E608230026B2E7AA461BF480715AF890
:1047D000040BBDD01BF400711ABFC0B2614680B299
:1047E000B6E72BF0060295B20DF1180B54E725F051
:1047F0001105ADB2BB468CE70D46B8E73B460D460A
:1048000003F1020BBBE7DDF804B082E7B26F0000F2
:10481000AB6F0000CDE904324146029B202098474F
:104820000028FFF613AF049B059A01339945F1DC8C
:10483000A4EB0B01CC189B460AB3029B41463020E7
:1048400098470028FFF602AF8EB901342744019B38
:10485000391B994224DC1D465DBB019AA9EB0B096B
:10486000224455461446914435E0019F92E70234B4
:1048700041463046029B98470028E7DAE6E640F2D8
:1048800006410D42E2D015F0020F14BF2B2020206C
:1048900015F4806F04F10104414618BF2D20E9E7AB
:1048A000029B414630209847002804F10104CEDAEB
:1048B000CCE606AB013D4146585D029B9847002877
:1048C000CADAC3E6029B414620209847002804F13B
:1048D0000104FFF6BBAEA9EB0403002BF2DCBFE53D
:1048E000704700207047836800EBC101B3F5004FAB
:1048F0002CBF51F8220031F81200704700EBC101C3
:104900008068B0F5004F2CBF41F8223021F81230FA
:10491000704708B50122FFF7E6FFD04008BD836865
:10492000B3F5004F00EBC10108D34B681AB143F057
:1049300001034B60704723F00103FAE74B881AB17B
:1049400043F001034B80704723F00103FAE7530063
:104950000122FFF7D3BF8368B3F5004F34BF0423B0
:104960000823481C0833A0EBD300B0FA80F0C0F154
:104970001F0070472DE9F0410D4686680446FFF799
:10498000C8FFB6F5004F014601D3012832D02046BA
:10499000FFF7E1FF04EB80010E6996B9E36801229D
:1049A00082401343E36002220D612B4629462046D4
:1049B000FFF7A4FF032229462046BDE8F041FFF798
:1049C0009DBF022231462046FFF78DFF2946034650
:1049D00007462046FFF792FF03223346294620462A
:1049E000FFF78CFF39462B462046FFF787FF022250
:1049F0003146E1E7BDE8F081B2F5802F2CBF0823F6
:104A00000423D21A2DE9F0418C18CD1D25F007059D
:104A100024F00704641B0026E40805602146AC600E
:104A2000EE602846FFF797FF421D9200013002F129
:104A300007074FEAD707A2F110023146B8BF324646
:104A400005F1100001F015FD3A4631462846FFF702
:104A50007EFF3346324631462846FFF74FFFA4EB30
:104A60000708284631460122FFF759FF42463946DA
:104A7000FFF76DFF3B46324639462846FFF73EFFBB
:104A800021462846FFF763FF434632462146284623
:104A9000FFF734FF214628460122FFF740FF394641
:104AA000BDE8F041FFF766BF002070470FB407B5BF
:104AB00004A951F8040B0191FBF798FC03B05DF8D1
:104AC00004EB04B07047038B13F0070305D10368B0
:104AD000002B0CBF002003207047022B05D1408B18
:104AE000B0FA80F0400980007047012B05D10368BF
:104AF000002B0CBF0020052070470020704710B528
:104B00000C4600B111B96FF0150010BD081D00F082
:104B100093F80028F9D1A368032BF6D9F3E72DE920
:104B2000F0410D4607461946281D90461E4600F0E6
:104B300094F8044638B13346424629463846A446DE
:104B4000BDE8F0416047BDE8F08110B4EFF3118299
:104B5000202484F31288BFF36F8F416110BC0121C0
:104B6000FBF776BC38B50C46054658B151B10B6819
:104B700043B14B6833B11C22002101F07AFC2C6157
:104B8000002038BD6FF01500FBE770B505460E46F6
:104B9000FFF7B5FF041E14DBEFF31182202383F32C
:104BA0001288BFF36F8F6B8B2C8B4FF6FF718B428C
:104BB00004F0070407D182F31188BFF36F8F6FF001
:104BC0000A04204670BD022C0CD101336B8382F3A2
:104BD0001188BFF36F8F0023224631462846FFF726
:104BE0009EFFEEE7062C14D8DFE804F0041313133D
:104BF000041A0400002333606B683BB9C5E9006602
:104C0000ACB902212846FBF723FCDAE71E606E6090
:104C1000F6E782F31188BFF36F8F6FF00404D0E7DB
:104C200082F31188BFF36F8F6FF08504C9E782F3B9
:104C30001188BFF36F8FC4E7034658B1426802F092
:104C40000302012A03D0032A04D1026812B1002012
:104C5000986070476FF0150070474268816002F0FD
:104C60000302032A4FF0000203460CBF00681046FF
:104C70005A607047704701F0FCBB01F0ECBB014685
:104C80000068FBF72FBD08B5FBF75CFDBDE80840E9
:104C9000FBF77CBD00210120FBF724BD6FF08500F0
:104CA000704761B662B680F31188BFF36F8F7047AB
:104CB00072B6002383F31188BFF36F8FBFF34F8F5A
:104CC00030BF62B6BFF36F8F704772B6002383F3B5
:104CD0001188BFF36F8FBFF34F8F20BF80F3118810
:104CE000BFF36F8F62B67047202809D9B0F1004F2B
:104CF00008D80138B0FA80F0C0F11F0040007047BA
:104D0000082070473E20704708B5FCF75DFA002088
:104D100008BD0369C9B20C2201FB0233186C00F014
:104D20000700704770B5C9B20369EFF311852024FD
:104D300084F31288BFF36F8F0C2606FB0134246CBA
:104D400014F0C00408D0A24206D085F31188BFF346
:104D50006F8F4FF0FF3070BD06FB013301221A64E4
:104D600085F31188BFF36F8F436803EBC1035B6862
:104D700098470020EFE78022FFF7D4BFF8B5069FE1
:104D80000469C9B2EFF31186202585F31288BFF3B9
:104D90006F8F0C2505FB0144256C05F0070CBCF159
:104DA000010F0CD1276486F31188BFF36F8FC4E91C
:104DB0000E23436853F8313098470020F8BD05F0C2
:104DC000C005AF4286F31188BFF36F8F0CBF6FF041
:104DD00077004FF0FF30F1E713B580240094FFF720
:104DE000CDFF02B010BD10B40069CBB21C2403FB90
:104DF0000400002110BC10471046FEF719BC00F05B
:104E00003BBDFDF775BD43685B68D3F810350B609B
:104E10000020704743685B6802EA010021EA020152
:104E2000C3F80805C3F80C150020704743685B6899
:104E30000020C3F80815704743685B680020C3F87A
:104E40000C15704743685A68D2F8043521EA03000C
:104E50000B40C2F80805C2F80C350020704710B5A9
:104E600003695868F8B1884219D19C68086858608D
:104E7000A14200D19860002008602AB15A680A60F7
:104E80009A68596002B99960002010E0814206D109
:104E90000868206098688142EDD19C60EBE7044689
:104EA00000680028F2D1002AE8D16FF0150010BD8B
:104EB000FDF732BE30B543681360057A446804EBF1
:104EC000C504A34202D36FF0010030BD5C798C426F
:104ED00001D00833F0E70020F7E743681B68D3F8F8
:104EE0008004C3F88004704742681368D3F8100147
:104EF00050B1126A002012780A70C3F81001D3F87A
:104F0000102101221A6070474FF0FF30704702688D
:104F10000346D2F8580140B95B68DB0706D4D2F8E3
:104F20002001003818BF01207047012070474368F6
:104F30001B68D3F80423D20517D5D3F82021A2B1DA
:104F4000EFF31182202181F31288BFF36F8FD3F822
:104F5000201131B10021C3F82011D3F82011012113
:104F6000D96082F31188BFF36F8FD3F8583170473F
:104F700013B501AA0446FFF79DFF002805DB019B3E
:104F8000226819791868FCF7B3FC02B010BD6FF005
:104F900085007047F8B50022054601210220FBF785
:104FA00009FF0220FBF7D6FE6C680121E068FFF7DD
:104FB000DFFF6B6819682369C1F82435A27D637D22
:104FC000207D1343228B02431343C1F86C356E6876
:104FD000D6E9004313F001033CD02F6904F10C0122
:104FE00007F1080204F5907000F0E2FB002830DBC6
:104FF000387AFDF7E5FB0823C4F80035F369C4F8F7
:1050000044350023C4F848350123A360D4F858314F
:10501000002BFBD00026C4F800656B683146D868C9
:10502000FFF7A6FF6D6831462C68E868FFF7A0FF20
:105030000823C4F800352A7A52B92B6AC4F83435EB
:105040000123C4F83835C4F81021D4F810212360A6
:105050000020F8BD0822C4F80025F269C4F84425F0
:10506000C4F848350123A360D4F82031002BFBD0CD
:105070000023C4F82031D4F820310123E3604FF439
:105080008073C4F80433C1E7002201210420FBF738
:1050900091BE10B50B6813B91360184605E003689C
:1050A0005C681CB114600368186810BD08330360A5
:1050B0000B68013B0B60EDE703460A46006819796F
:1050C000012303FA01F103691B68194218BF82F03A
:1050D000010212B18368DB68184783681B69FBE72C
:1050E00010B5036804464BB19A683AB1186901F0EB
:1050F0006DF8206800210830FFF7DEFFA36933B99F
:10510000636004F11000BDE81040FEF791BA10BDD5
:1051100010B5006903688B4206D190F85C4034B941
:10512000FFF7DEFF204610BD6FF01500FBE76FF0C4
:105130000F00F8E72DE9F34144680569266A01AAE2
:1051400000213046FFF7B6FE002824DB019B3268C1
:1051500019791868FCF7CCFB00281CDBA16A481CF5
:1051600011D1E3699847AC6801260834D5E90232C9
:1051700003EBC203A4F1080293420FD82846FFF7BD
:10518000AFFF002007E0606A00F0B8F810F1130FDD
:1051900001D0411DE5D102B0BDE8F08154F8080C02
:1051A00001F030F828B354F8080C14F8041C34F853
:1051B000023CD0F810C0D0F80880DCF80070DA07A4
:1051C00054BF43F4B01383F4D01323F4801206FACF
:1051D00001FEDB074CBF4EEA070727EA0E07CCF8B3
:1051E0000070D8F800309847002804F10804BDDAB0
:1051F000D1E76FF01200CEE77FB505464068296918
:105200008A6C0B6DFAB99BB14C6C8B6516461A46CD
:10521000C96C0291CDE9004601B3002B18BF1346BB
:10522000002269460393FDF793FE50B16FF004032B
:105230002C69236304F12000FEF7FAF9002384F8B7
:105240005C3004B070BD4C6C13B19A4228BF1A4652
:10525000002C8A6514BF16460026D9E70B46DFE707
:1052600038B503780C4663B98D6D5DB94B6D1C691B
:105270006FF07303236304F12000FEF7D9F984F87B
:105280005C5038BD8B6C93B19D4210D85B1B8B6416
:1052900043BB4B6B08334B638B6B013B8B6301F15F
:1052A000480204F134003831FFF7F3FE6064236DE7
:1052B0009BB19D4211D85B1B2365CBB9E36B0833CF
:1052C000E363236C013B236404F1500204F14001C9
:1052D00004F13C00FFF7DDFEE064606DBDE838409E
:1052E000FFF78ABF4B6C002BE1D02B444B64DEE709
:1052F000E36C002BF1D02B44E364EEE7F0B587B00C
:1053000001238DF8023002238DF804306B4403939F
:105310000E4601AB0DF103010027054602910493EF
:105320000597FDF7EDFB041E0BDB03AA314628466B
:1053300000F0C1FB041E07DA9DF803102846FDF7B4
:10534000D9FB204607B0F0BD3C46FAE7F8B50C465D
:10535000054600F070FD002221460646284600F072
:1053600015FD03212046FCF787FD00F0DDF9074617
:105370002B689B5953B100262146284600F059FD61
:1053800020460121FCF778FD3046F8BD00F0CCF94D
:10539000C01B0628ECD96FF07306EDE7002201214F
:1053A0002F20FBF707BD10B50B6813B91360184623
:1053B00005E003685C681CB114600368186810BDE0
:1053C000083303600B68013B0B60EDE713B501AADE
:1053D0000446FFF76FFD002805DB019B2268197961
:1053E0001868FCF785FA02B010BD03460A4600684B
:1053F0001979012303FA01F103691B68194218BFE7
:1054000082F0010212B18368DB68184783681B6968
:10541000FBE738B50469456894F885302BB1204620
:10542000FDF79CFF002384F88530686B0121FFF7AE
:10543000CDFF002038BD10B504460068D0B18368A8
:10544000C3B149B101210830FFF7CFFF23681869C4
:10545000BDE8104000F0BABE12B98388DB0409D45D
:10546000006900F0B3FE20680021BDE8104008305C
:10547000FFF7BBBF10BD10B5012200210446FFF7A6
:10548000DAFFA36933B9636004F11000BDE810408E
:10549000FEF7CEB810BD10B50069836A8B4207D104
:1054A00090F884403CB92830FFF7E5FF204610BD56
:1054B0006FF01500FBE76FF00F00F8E72DE9F843F8
:1054C0004468066901210546606BFFF77FFFE16BC9
:1054D000481C17D1E36A9847346B01270834D6E992
:1054E0000C3203EBC203A4F10802934214D806F174
:1054F0002800FFF7C0FF6B680021586BFFF766FFBD
:10550000002007E0A06BFFF7F9FE10F1130F01D0A8
:10551000411DDFD1BDE8F88354F8080C00F072FE9D
:1055200028B354F8080C14F8041C34F8023CD0F8E2
:1055300010E0D0F80890DEF800C0DA0754BF43F45A
:10554000B01383F4D01323F4801207FA01F8DB07B9
:105550004CBF48EA0C032CEA0803CEF80030D9F817
:1055600000309847002804F10804B8DAD2E76FF059
:105570001200CFE738B505690446A96505F1480072
:10558000FEF756F8002285F8842020691146BDE810
:1055900038402830FFF74FBFF0B504694568226FE7
:1055A000A36F85B006467ABB002B4ED02D8EE06EE1
:1055B000676F9D4228BF1D46636F5BB1A26F4AB102
:1055C00007F06042B2F1005F04D0082DD4F88C706F
:1055D00028BF0825E26EC4F880501AB1226F002A55
:1055E00018BF2A4601921BB1A36F002B18BF2B4690
:1055F00000906946002220460393029700F013FDB5
:10560000014618BB05B0F0BDE16E676F2D8E0846F0
:10561000BBB1934228BF13469D4228BF1D460029B7
:10562000CAD001F06043B3F1005FC5D0082D28BF98
:105630000825D4F888002A4600F00DFFD4F8880029
:10564000BAE7954228BF1546E9E71946304605B046
:10565000BDE8F040FFF78EBF38B502780346002A58
:1056600055D10C69D4F8802032B9E06F6FF0730126
:10567000BDE83840FFF77EBF606F48B1A16F39B118
:10568000DB682BB1834203D0D4F88C1000F0E3FE2A
:10569000236FD4F880509BB19D4211D85B1B2367C8
:1056A0004BBBE36D0833E365236E013B236604F1D6
:1056B000700204F1600104F15C00FFF774FEE06623
:1056C000A36F9BB19D4211D85B1BA367CBB9636EDF
:1056D00008336366A36E013BA36604F1780204F10C
:1056E000680104F16400FFF75EFE6067E06FBDE8EB
:1056F0003840FFF751BFE36E002BE1D02B44E36647
:10570000DEE7636F002BF1D02B446367EEE738BD13
:1057100000F150039B009BB203F1804303F58833F3
:1057200000221A601B68704708B5FCF7E3FD08BD4E
:1057300003460020184700F049BD10B50246116825
:10574000B1B1BFF35B8FB1FA81F3C3F11F00012345
:10575000834021EA030352E8004F8C4204D142E81F
:10576000003CBCF1000FF6D1BFF35B8FE7D110BD59
:105770006FF00B00FBE710B50368CB40DB0714D4D8
:1057800001238B400268BFF35B8F43EA020150E8BC
:10579000004F944204D140E8001CBCF1000FF6D148
:1057A000BFF35B8FEED1002010BD6FF01500FBE75B
:1057B00070B50C460021054608461646FCF7F2FF78
:1057C00000280ADB3378DB0003F1804303F5F8336C
:1057D0000020C3F81055C3F8144570BD10B101285E
:1057E00002D07047FDF784B8FDF73CB818B1012826
:1057F00003D100F026B800F03FB8704708B5FDF7B8
:105800004DF8BDE80840FDF7B3B838B54FF0804417
:105810000123C4F8083363600023C4F80031D4F8CE
:10582000003142F21075D4F80C24D4F80C34D203B1
:1058300006D5DB0704D50120FFF77DFF013DF2D13E
:1058400038BDFFF7E2BF38B54FF080440223C4F8FB
:1058500008330123E3600023C4F80431D4F8043191
:1058600042F21075D4F81834DB0304D50120FFF799
:1058700062FF013DF6D138BDFFF7E5BFF7B50190F6
:1058800001A8DDE9084716461D46FDF7A9F8019B6A
:10589000B6F1000C18BF4FF0010C00EB83000B1E9B
:1058A00018BF0123002D43EA4C0314BF4FF00C0C2A
:1058B0004FF0000C002C43EA0C0314BF4FF4E06CD3
:1058C0004FF0000C002F43EA0C03D0F8002714BF60
:1058D0004FF4403C4FF0000C43EA0C0322EA030370
:1058E00001B109780EB13678760019430DB12D78E3
:1058F000AD0031430CB12478240229430FB13F7825
:105900003F040C433C43C0F8004703B0F0BD1FB553
:105910000DF10F03019300238DF80F1000931A4629
:105920001946FFF7ABFF05B05DF804FB10B5044660
:105930000846FDF765F804EB4004A08AC0F3401068
:1059400010BD10B504460846FDF75AF804EB4004B4
:10595000A08AC0F3400010BD10B504460846FDF70C
:105960004FF804EB4004A08A400B10BD70B504460C
:1059700008461646FDF744F808300D4634F8103056
:10598000DA0509D5C3F3432304EBC302314654F8C7
:105990003330526828469847A3682BB1E2683146F5
:1059A0002846BDE87040184770BD10B5044608464B
:1059B000FDF726F800B204EB4000838ADA051DD516
:1059C000C3F3432123F4F853838204F1120204F158
:1059D000660032F8023F13F4807F03D0C3F3432301
:1059E00099420BD08242F4D104EBC10300225A60E9
:1059F00004F16C00BDE81040FFF7BDBE10BD10B54E
:105A00000446FFF793FF40B12046FFF7A5FF00B221
:105A1000800000F5807080B210BD4FF4BE70FBE7CF
:105A2000F0B5034600F58074002005460127844642
:105A300095420AD1D3F87C2132B10022C3F87C21EF
:105A4000D3F87C3140F00040F0BD25F0404607FA25
:105A500006F6314209D0D4F800E0BEF1000F04D0C0
:105A6000C4F800C0D4F800E0304301350434DFE767
:105A700038B504460D46FFF759FFB0B12046FFF791
:105A800060FF90B92046FFF767FF2268012383403B
:105A9000C2F80833236800B203EB8003D3F8102563
:105AA00022F00302C3F8102538BD28460021BDE8C6
:105AB0003840FFF72CBF2DE9F043174685B0044668
:105AC0000846FCF79DFFD7F800800E460546B8F162
:105AD000000F1FD02046FFF734FF18B12046FFF714
