:020000024000BC
:1080000040430120258F040053C60400118F040053
:10801000118F0400118F0400118F0400118F0400D0
:108020000000000000000000000000009990040023
:10803000118F04000000000029900400118F04003B
:108040001592040015920400159204001592040084
:108050001592040015920400159204001592040074
:108060001592040015920400159204001592040064
:108070001592040015920400159204001592040054
:10847C0053B94AB9002908BF00281CBF4FF0FF317F
:10848C004FF0FF3000F00CB8ADF1080C6DE904CEE4
:10849C0000F008F8DDF804E0DDE9022304B07047D1
:1084AC00704700BF2DE9F04786468C460846089E6B
:1084BC00154674461946002B40F0C1808542B2FA2D
:1084CC0082F245D94AB1C2F1200300FA02FC954070
:1084DC0094402EFA03F343EA0C0C4FEA154EA8B263
:1084EC00230CBCFBFEF80EFB18CC08FB00F943EA8E
:1084FC000C43994528D9EB1808F1FF3704D299455C
:10850C0002D9A8F102072B44A3EB0903A4B2B3FBD5
:10851C00FEFC0EFB1C330CFB00F044EA0344A042AF
:10852C0014D92C190CF1FF3304D2A04202D9ACF1AE
:10853C0002032C44241A43EA07401EB1D440002302
:10854C0034607360BDE8F0874746DDE76346F1E7CA
:10855C0092BB431B01214FEA154EAFB2200CB3FB6B
:10856C00FEFC0EFB1C330CFB07F840EA034398455A
:10857C0061D9EB180CF1FF3004D2984502D9ACF15B
:10858C0002002B44A3EB0803A4B2B3FBFEFC0EFBCE
:10859C001C330CFB07F744EA0344A7424DD92C19B2
:1085AC000CF1FF3304D2A74202D9ACF102032C44E4
:1085BC00E41B43EA0040C0E7C2F12003954094401D
:1085CC0020FA03F12EFA03F34FEA154E9040AFB2A6
:1085DC000343B1FBFEFC0EFB1C10190C0CFB07F843
:1085EC0041EA0041884522D969180CF1FF3004D2C8
:1085FC00884502D9ACF102002944A1EB08019BB2D9
:10860C00B1FBFEFC0EFB1C110CFB07F743EA01430C
:10861C009F420ED9EB180CF1FF3104D29F4202D9C4
:10862C00ACF102012B44DB1B41EA004193E76046AD
:10863C00E3E76146F7E76046A4E76346B8E78342A1
:10864C0006D916B9002108467CE7C6E900E0F9E72F
:10865C00B3FA83F78FB9834201D3724508D8BEEBC6
:10866C00020460EB030301209C461EB9002169E75C
:10867C003846FAE7C6E9004CF8E7C7F1200CBB40D6
:10868C000EFA07F522FA0CF42EFA0CF1BA401C4340
:10869C0020FA0CF3B8404FEA144901431FFA84FE48
:1086AC00B3FBF9F809FB18300B0C08FB0EFA43EA84
:1086BC0000439A4540D9E31808F1FF3004D29A459B
:1086CC0002D9A8F102002344A3EB0A0389B2B3FB3D
:1086DC00F9F809FB183308FB0EFE41EA03418E45FD
:1086EC002CD9611808F1FF3304D28E4502D9A8F1B8
:1086FC000203214443EA0040A1EB0E01A0FB0298C7
:10870C004145CE46434602D306D14D4504D20138ED
:10871C00B9EB020E68EB0403002EA7D0B5EB0E02EA
:10872C0061EB030101FA0CFC22FA07F3F9404CEA65
:10873C000303C6E9003199E74046C5E74346D9E74C
:10874C00014B1B68184700BF90300120014B18608B
:10875C00704700BF9030012030B585B004460D46FF
:10876C0010220021684604F012FD02238DF802301D
:10877C00044B2A4621466846019303F037FB05B0AB
:10878C0030BD00BF4D87040080B505460E46174628
:10879C00984603F0A7F8034604F074FD0446DFF88E
:1087AC001890424649F8003039463046A84754F8EC
:1087BC00090000F01DFC00BF080000002DE9F04787
:1087CC00058B04462807904611D4022905F00705AD
:1087DC0040F0CC80204603F056FE78B10138218B56
:1087EC00042811D8DFE800F0C2106D85950001292E
:1087FC000CBF45F0100545F02005258388F3118842
:10880C00BFF36F8FBDE8F08701F0070AAA4500F0AF
:10881C00A5800027B9463E46A368002B00F0BC801B
:10882C0041F00801218388F31188BFF36F8FA16891
:10883C00002900F0BA800D68002900F0B68033469C
:10884C0052462046D1F80480C047002D76D02B68C4
:10885C0029461D46F0E701F007035A1F012A1BD8D1
:10886C00002221F00701062B276889B2C4E90022F7
:10887C0009D13B4603E0628B013262831B68002BFB
:10888C00F9D141F002012046218303F0FCFD0028C0
:10889C007AD041F0200176E0042B0AD121F00701B7
:1088AC0089B22046218303F0EEFD10B141F0200186
:1088BC002183218B01F0070AAA454FD00027B94626
:1088CC00AAE7236921F0070141F00601062DD3F830
:1088DC00009021832DD1B9F1000F3FD041F0080158
:1088EC00218388F31188BFF36F8F20463949C8471D
:1088FC0029E021F00701236941F0040189B2042D1C
:10890C00D3F804902183E6D000274FF0040A3E46AA
:10891C0082E721F00701236941F0050189B2052D99
:10892C00D3F808902183D6D000274FF0050A3E4695
:10893C0072E700274FF0060A3E466DE72B4687E7A5
:10894C00B9F1000FD1D1EFF31188202383F31288F2
:10895C00BFF36F8F238B23F008032383258BEA0649
:10896C002ED525F01003238305F007056669218BAE
:10897C00002EBFF670AF00232768C4E9003321F046
:10898C00070141F001012183218B4FF0000901F017
:10899C00070AAA457FF440AF002F9CD041F0080194
:1089AC00218388F31188BFF36F8F002FC8D03D68E7
:1089BC00394633465246204603F091FD2F46F4E7E4
:1089CC00AB067FF51BAF25F02003238305F00705CD
:1089DC0000E700BF17C50400014B0360002070477F
:1089EC00F8DC040008B5044803F040FDBDE808407D
:1089FC00024803F03BBD00BF38DE04006DDE04000E
:108A0C0008B50348034A0021121A03F014FE08BDEE
:108A1C00D8310120FC350120074808B5074A084920
:108A2C00121A03F00AFEBDE808400648064A074938
:108A3C00121A03F002BE00BF00300120D831012011
:108A4C004CE3040000300120003001204CE3040012
:108A5C0038B505460C4699B1D1E901230F48096890
:108A6C0003F004FDD4E90423E1680D4803F0FEFC97
:108A7C00E1690C4803F0FAFCA1690B4803F0F6FC21
:108A8C00012D05D1EFF305810848103903F0EEFCF8
:108A9C0021462846BDE8384002F0A6B99BDE04000A
:108AAC00CBDE0400FBDE04000BDF04003ADF040025
:108ABC0030BFFFF7FDBF00BF2DE9F04105460B4E5F
:108ACC00DFF82C80324606EB0807CC1B2046094900
:108ADC0004F050FBA01942460021083C04F057FB5F
:108AEC00C5F8B44007F10800BDE8F08100000000B3
:108AFC0004000000B4DC0400054B5A699B689A42E0
:108B0C001FBF044A536843F080535360704700BF43
:108B1C00C435012000ED00E010B5204C204803F0D6
:108B2C00A5FCA36A990137D51E4803F09FFC1E20B3
:108B3C00A36ADA0103D51C4803F098FC1F20174CDC
:108B4C00A36ADB0203D5194803F090FC0220A36A48
:108B5C001C0303D5164803F089FC21200F4CA36A93
:108B6C00590303D5134803F081FC2220A36A9A030E
:108B7C0003D5114803F07AFC2320084CA36ADB03CD
:108B8C0003D50E4803F072FC2420A36A6FEA03435A
:108B9C006FEA1343A36210BD1D20C9E700ED00E08E
:108BAC004EDF040067DF04007BDF040096DF040067
:108BBC00C1DF0400E0DF040006E0040021E0040053
:108BCC0070B5244C064624480D4603F04FFCA36AAE
:108BDC00D90435D5214803F049FC1720A36A1A059E
:108BEC0003D51F4803F042FC18201A4CA36A9B05BE
:108BFC000FD51C4803F03AFCA16BA36A180407D5E7
:108C0C00194803F033FC1EB1A36A23F40043A3629A
:108C1C001920104CA36A590503D5144803F026FCFF
:108C2C001A20A36ADA050DD5114803F01FFC1B208E
:108C3C00084A936A43F47F43936200232B7070BD00
:108C4C001620CBE7A36A9B04F2D50A4803F00EFC6E
:108C5C001C20EDE700ED00E04DE0040064E00400B2
:108C6C0076E004008AE00400A4E00400BAE004000A
:108C7C00D6E00400EFE0040070B5264C064626480A
:108C8C000D4603F0F3FBA36AD80640D5234803F046
:108C9C00EDFB1120A36A190703D5214803F0E6FB6D
:108CAC0012201C4CA36A9A070FD51E4803F0DEFB5A
:108CBC00616BA36A1B0607D51B4803F0D7FB1EB1DB
:108CCC00A36A23F08003A3621320124CA36ADE076D
:108CDC0003D5164803F0CAFB1420A36A9C0603D5DF
:108CEC00134803F0C3FB15200A4B9A6AD10658BFF0
:108CFC009A6A9A6A920642BF5A6A22F400525A62DF
:108D0C009A6A42F0FF029A6200232B7070BD102009
:108D1C00C0E700BF00ED00E01FE1040036E10400F5
:108D2C0076E004006AE1040083E104009AE10400A7
:108D3C00EFE004002DE9F0435F4B0446D3F80490B8
:108D4C000F46164600258BB0C9F3080885F3118829
:108D5C00BFF36F8F02F07F43B3F17F4F1ED1D30768
:108D6C001CD4500603D4110707D4012507E053483F
:108D7C0003F07CFB16F0040600D03C4600250026D0
:108D8C00A8F103038DF80760092B00F28380DFE85C
:108D9C0003F007777B7381818181817F2C46EEE71D
:108DAC00474803F063FB8DF80760434EF36A9A075C
:108DBC0004D5444803F05AFB002326E0F36A002B49
:108DCC0001DA4148F6E7F36A5B00F5D53F4803F05A
:108DDC004DFB7369A26943F480737361BFF34F8FCA
:108DEC00BFF36F8F736932F8022C23F480737361B5
:108DFC00BFF34F8FBFF36F8F4DF602739A4224D19E
:108E0C002168334803F032FB23689DF80720CAB968
:108E1C0002AE04F12007324620686168083403C2B0
:108E2C00BC421646F7D1099A002D3FD0C2F3080177
:108E3C0021B96FEA52226FEA42220992184602A91E
:108E4C00FFF706FE0BB0BDE8F083B36ADBB22BB1C3
:108E5C0001200DF10701FFF70FFF0FE0B36A13F4C8
:108E6C007F4F05D001200DF10701FFF7A9FE05E0AA
:108E7C00B36AB3F5803F9FD3FFF74EFE0346C4E7BA
:108E8C0000200DF10701E6E700200DF10701ECE7EA
:108E9C0010488FE7104B19F4F87F1049104818BF91
:108EAC001946A8F1100203F0E1FA85E722F4FF72EB
:108EBC0022F00102C1E700BF00ED00E0E8E1040090
:108ECC000CE2040024E2040046E2040055E2040033
:108EDC0075E2040092E20400CFE10400BAE1040060
:108EEC00B7E20400064B5A6942F010025A615A6903
:108EFC0042F480625A615A6922F008025A61704742
:108F0C0000ED00E0EFF30880EFF3098101B5724644
:108F1C00FFF710FF01BD00BF002080F31488BFF3E2
:108F2C006F8F002080F30A8880F30B88104880F341
:108F3C00088800200F49087001F0C2F900200E4982
:108F4C000860BFF34F8F00F02DF8202080F31188BC
:108F5C000A484FF40061401880F30988EFF314803D
:108F6C000221084380F31488BFF36F8F00F0E0F800
:108F7C0040430120F735012094ED00E0003601203C
:108F8C00002318460649D1F89020C2F307229342D9
:108F9C0000DB7047C1F89830C1F8A0000133F6E748
:108FAC0000ED00E010B572B6002484F31388FFF7CF
:108FBC00E7FF23464FF0FF300C4A03F12001013349
:108FCC00102B42F82100F8D100234FF0FF30074A54
:108FDC0003F160010133102B42F82100F8D162B685
:108FEC00BFF34F8FBFF36F8F10BD00BF00E100E0E8
:108FFC00084B9B6883420BD1EFF3058343B1064BBF
:10900C005A6842F080525A605A6A22F400425A62FC
:10901C0002F06EBCC435012000ED00E018498A68EE
:10902C0082F8C1E04FF030001044EFF3098C80E877
:10903C00F01F202080F31288BFF36F8F114F4FF079
:10904C0000664A698A603E60D2F8B4000E4C20601B
:10905C0092F9C1E0D2F8B8000023C2F8B83080F31E
:10906C00118802F1300090E8F01F8CF3098802F1AE
:10907C00000004B503F0F2FABDE8044070470000AC
:10908C00C435012004ED00E0783401201EF0040FFB
:10909C000CBFEFF30880EFF30980816911F8021C13
:1090AC000229FFD001B5724603F0C9FA01BD00BF19
:1090BC0000B2002807DB01234109034A00F01F001E
:1090CC00834042F82130704700E100E0054B420933
:1090DC0053F82220012300F01F0003FA00F0104087
:1090EC00704700BF00E100E000B2002801F101016F
:1090FC00ACBF00F16040064B4FEA4111C9B2ABBFA7
:10910C0000F5614000F00F0080F80013195470470F
:10911C0014ED00E0044B054A23F07F039360BFF38A
:10912C004F8FBFF36F8F70470080040000ED00E09D
:10913C0008B5FFF7EFFF074AD2F8883023F4700325
:10914C00C2F88830FFF75CFCFFF766FC00F04CF8C7
:10915C0001F012FF00ED00E042F8203C009B0D49AD
:10916C0042F81C3C019B21F0010142F8183C029B87
:10917C0042F8081C42F8143C4FF0807342F8043C4F
:10918C000023C0F8B8304FF43C43203A0265C0F8D5
:10919C00C03070479587040000B50E4B154698609B
:1091AC00D0F8B4200C4B0E461A60D0F8A43083F3E0
:1091BC000B882C4686F309880020044B98472046E0
:1091CC00002100220023024C2047000079C6040035
:1091DC0095870400C4350120783401201022014BFE
:1091EC001A61704700ED00E00023202040F20F12BE
:1091FC0010B5044CE1180133934281F80003F9D106
:10920C0010BD00BF00E100E008B5EFF30583064A8E
:10921C00103B02EBC30152F8330049688847BDE8A4
:10922C000840FFF769BC00BFACD304001FB5094C64
:10923C00094A23460121094800F0FAF80023039358
:10924C00074B0121E41A01A80193029400F0FAF8EB
:10925C0004B010BD00F0022000300120F8DC040046
:10926C00D831012010B50C7A0B6804F01F0223F0E2
:10927C001F031A43CB68640923F01F03054943EA13
:10928C00440343F00103C1F89800C1F89C20C1F8D5
:10929C00A03010BD00ED00E010B5074BD3F89030B6
:1092AC00C3F30723013B984202D8FFF7DBFF10BD45
:1092BC006FF01500FBE700BF00ED00E02DE9F04F6B
:1092CC000F46144606464FF000084D4D85B0B84584
:1092DC0080F29280D6F80490B9F1000F36D0B9F133
:1092EC001F0F40F2878019F01F0F40F08380D6F8D3
:1092FC0000A01AF01F0F7DD1504603F0DAF9834617
:10930C0009EB0A00013803F0D4F9834572D11BF143
:10931C00160F6FD05C456DDDC5F898B0D5F89C1074
:10932C00C5F898B0D5F8A03021F01F0143F01F0A02
:10933C00D6E900321A44994202F1FF391ED1CA45CE
:10934C0008D131465FFA8BF003F0BCF908F1010843
:10935C000C36BCE73146C5F898B0D5F89C3022F0F5
:10936C001F0203F01F031343C5F89C30E0B203F057
:10937C00A9F910F1160F3DD0441CE7E7C5F898B0D9
:10938C00D5F8A020013B23F01F0302F01F0213436A
:10939C00CA453146E0B2C5F8A030E8D003F092F9E6
:1093AC0010F1160F26D0C5F898B0D5F89C209DF872
:1093BC0008300AF1FF3A62F304038DF80830D5F84F
:1093CC00A0309DF808205B0863F347128DF8082045
:1093DC00D6E900321344009323F01F035344A3EB4C
:1093EC000903013023F01F036946C0B20393FFF752
:1093FC0053FFBEE76FF01504204605B0BDE8F08FB3
:10940C0000ED00E00522044BC3F89420BFF34F8F0E
:10941C00BFF36F8F704700BF00ED00E0BFF35F8FAD
:10942C000022024BC3F89420704700BF00ED00E00F
:10943C0010B5034C2278FFF741FF207010BD00BF20
:10944C00F43501202DE9F74F294D8A4606464FF099
:10945C000008AB46274FD0451BDAD6F80490B9F17B
:10946C00000F3FD031680846019103F022F90199B1
:10947C00044609EB0100013803F01BF984424FF05C
:10948C0014021D4B08D002FB08F36FF015024BF8C9
:10949C00032003B0BDE8F08F14F1160F2C60F8D048
:1094AC001978A142F5DD02FB08B0C7F89840C7F85F
:1094BC009840D7F89C4000F10801007B64F304004D
:1094CC000871D7F8A0000C79400860F347140C71B0
:1094DC00D7F89C1021F01F016960D7F8A01021F07B
:1094EC001F01296108F1010814350C36B3E700BFE0
:1094FC007C34012000ED00E0F4350120F0B5414949
:10950C00414CD1F890302568C3F307239D4287B0B6
:10951C0075D80020FFF782FF3C4BC1F8C030854264
:10952C0016D13B4C01A82570FFF756FA00250646CC
:10953C00384FAE4213D1002023783249D1F8902015
:10954C00C2F30722934254DBFFF75CFF00202FE0AD
:10955C00616801EB0011FFF785FE0130DFE701992F
:10956C00280101EB0513DA683A40B2F5001F21D04F
:10957C00B2F5800F2BD0B2F5801F38D15A689B689A
:10958C000958013B22F01F0003440120844623F0BC
:10959C001F0340EA4C10CDE902218DF8100002A9FE
:1095AC0020780593FFF778FE00281DDA6FF0150080
:1095BC0007B0F0BD5A689B680958013B22F01F00A8
:1095CC0003444FF0020C012023F01F03E1E75A681B
:1095DC009B680958013B22F01F0003444FF0000C1C
:1095EC00062023F01F03D4E72378013323700135C1
:1095FC009FE7C1F89830C1F8A00001339EE74FF007
:10960C00FF30D5E700ED00E004DD0400AAFF4400C4
:10961C00F43501200000F0FF08B5024B1B68984799
:10962C00002008BD90340120034B044A1860937845
:10963C0043F0020393707047903401209430012062
:10964C0008B50649064821F00701C1F1005202F5A0
:10965C003C3202F0B1FE002008BD00BF47430120A0
:10966C0094340120024B034A00201A60704700BF5B
:10967C00A03101200020A10748B1054B054A1B6809
:10968C00B3FBF2F35843044B43F001031847704704
:10969C00A031012040420F00E0DC0400084B70B503
:1096AC00C31A0D4607499B100446594340220648ED
:1096BC0003F02FF82B4601462046BDE870401847B2
:1096CC00B4340120B76DDBB60CD30400402373B562
:1096DC000B4C0093041B0B460D460A49A410614326
:1096EC000646094A094803F040F8011E05DA3046DF
:1096FC002B4602B0BDE87040184702B070BD00BFE9
:10970C00B4340120B76DDBB6E1C704000CD3040000
:10971C00F8B500220121054640F20510FFF7E4FCE4
:10972C000F4800F0DDFD0446B8B900F0F9FD2F69D3
:10973C000C49384602F0F6FE031E09DB01263E6496
:10974C002D69084905F11C0002F0ECFE031E02DA3B
:10975C001C462046F8BDEE64FBE76FF00404F8E706
:10976C0001C804002CDD04001FB500220123CDE943
:10977C0002236B46084ACDF800D0CDF804D003F094
:10978C0022F8002805DB43F609520023684601F055
:10979C0055FD05B05DF804FBF3C7040010B5EFF3FD
:1097AC001184202383F31288BFF36F8F074A136849
:1097BC0023F00201DB07116002D4012003F093F9BE
:1097CC0084F31188BFF36F8F10BD00BF04350120E7
:1097DC000C22104B014602FB0033002030B4D3E9BD
:1097EC000E529863EFF31180202484F31288BFF398
:1097FC006F8F1C6C04F0C00444F002041C6480F3F2
:10980C001188BFF36F8F1DB12B4630BC024818472F
:10981C0030BC7047B43401200CD3040010B4EFF307
:10982C001182202383F31288BFF36F8F16480168CF
:10983C0041F002040460C80707D482F31188BFF317
:10984C006F8F012010BC03F046B91049D1F80C14ED
:10985C00C903F2D5EFF3118083F31288BFF36F8F36
:10986C000B490B6C03F0C00343F002030B6480F351
:10987C001188BFF36F8F82F31188BFF36F8F0020B5
:10988C0010BCFFF7A5BF00BF0435012000E010405D
:10989C00B43401202DE9F041012207463449D1E8C6
:1098AC00EF3FC1E8E02F0028F9D133B931493248F4
:1098BC004B60CB608A6002F048FE7B1E012B28D8DF
:1098CC00012F06D12D4BD3F8503403F00303012B99
:1098DC001FD003F096FB0546E8B9294B1B78D3B192
:1098EC0004220646254BC3F80823244CDFF8948049
:1098FC00D4F84C24D4F84C34D20315D503F003031C
:10990C00012B01D0012F0FD165B386F31188BFF362
:10991C006F8FBDE8F081EFF31186202383F312885B
:10992C00BFF36F8F0125E0E7BDB1304602F0B2FE08
:10993C00D4F8403413F0FF03DAD1D4F80821002A0C
:10994C00D6D0C4F80831D4F8083120220123C4F849
:10995C004034C8F8A0212361CAE70021202001F07F
:10996C006FFFE5E70422054BC3F80423D1E700BFE2
:10997C00B0340120A0340120D034012000E010408C
:10998C00F735012000E100E008B5074803F010FBB3
:10999C0038B10648FFF748FE0448FEF7D7FE002012
:1099AC0008BD6FF01200FBE78CD30400BD990400D6
:1099BC000A2838B50446074D04D1AB680D2128465A
:1099CC005B689847AB6803485B68E1B298472046F0
:1099DC0038BD00BF8CD304002DE9F04340F20635AE
:1099EC004768D00648BF4FF0030C3B7C02EA0505E4
:1099FC0058BFC2F3401C87B001F01F06B5F5837F3A
:109A0C00144646EA43168DF803C046D00DD8062DF1
:109A1C0045D005D8A5B1022D12D06FF0150039E054
:109A2C00B5F5807FF9D101250AE040F2022295427A
:109A3C0037D0B5F5407F36D0B5F5007FEDD1042594
:109A4C000123220303FA01F12FD57B685960B86812
:109A5C0080BB5F2E06F01F034FEA561173D83C4AA9
:109A6C0052F8212084F4803102EB8302D2F880304A
:109A7C00C1F30041C4F3404423F4706344EA41044D
:109A8C0023F00F031C4344EA8C0444EA0524C2F877
:109A9C008040002007B0BDE8F0830925D0E70825F9
:109AAC00CEE70625CCE70525CAE7630344BF7B68F0
:109ABC009960CCE731460DF1020203F0EEF914F493
:109ACC00403F80460CD13146B86803F0FFF9B8F13D
:109ADC00000FDED19DF80210B86800F0ADFED8E79B
:109AEC004FF0000901ABCDE90199CDE90439CDF86E
:109AFC000C903146B86803AA03F013F94845C8DB4B
:109B0C0014F4003314D09DF8033084F48034C4F37F
:109B1C0000448DF80E308DF80C508DF80D404B46EE
:109B2C003146B86803AA00F0DBFD0028CFDAB0E7B5
:109B3C00CDE904330DF1030303933146B86803AA4E
:109B4C0003F0EFF8F1E7203350F82330FFDE00BFCD
:109B5C0048DD04004209022A034670B503D0012AED
:109B6C0018D0CAB170BD0E4E326951680029F9D0B7
:109B7C00012503F01F030C689D400029F2D08A6870
:109B8C002A4002D030464B6898473CB123682146A6
:109B9C001C46F2E7034EE7E7034EE5E72346F6E7FC
:109BAC006CD304004CD304002CD3040038B54568A6
:109BBC00A868C0B103F084F90146A0B9A86800F008
:109BCC0009FE044688B902460949A86803F062F9FF
:109BDC0022460121DA20FFF787FA224601214FF4B1
:109BEC008670FFF781FA002038BD6FF00400FBE7A8
:109BFC00619B0400F0B545681646A8682A7C01F004
:109C0C001F0487B044EA4214002868D0B6F5001F40
:109C1C0004D1214603F0AEF9002051E00020B6F546
:109C2C00800F01AA0190506039D1B3F1007F14BFAD
:109C3C00052304238DF804300023CDE9042303937A
:109C4C00EB680DF1030723FA01F111F0010139D191
:109C5C00B6F1A07F36D104F01F035F2C4FEA5410ED
:109C6C0003F120033ED8214A52F8202052F8233029
:109C7C00DB0727D43A462146A86803F00EF91630C4
:109C8C0018D002972146A86803AA03F04AF80028C6
:109C9C0016DB01222146A86803F01AF9BCE7B3F1E0
:109CAC00C06F05D0B3F1007F14BF01230223C1E7BD
:109CBC000323BFE73946A86800F0C8FD0028E0DAA6
:109CCC0007B0F0BD3A462146A86803F0E6F8002834
:109CDC00D8D19DF80310A86800F0AEFDD2E76FF064
:109CEC008500EDE751F82330FFDE00BF48DD0400AE
:109CFC00036803F01F025F2B02604FEA53129ABFF6
:109D0C00024B53F822000020704700BF90DD040086
:109D1C002DE9F04F1546074640F2FF19DFF868A110
:109D2C00DFF868B185B000EB8101B94203D10020A6
:109D3C0005B0BDE8F08F3A68C2F3C323082BC2F319
:109D4C00080400F29E804C4508BF4FF0FF34B2F17E
:109D5C00D05F1AF803804FEA126310D2192B12D875
:109D6C00DFE803F014226461292F61111111111124
:109D7C001111111111111111111167717477382B07
:109D8C006AD04E2B52D06FF08500D1E7C5F804464F
:109D9C00601C14D0012603A80394FFF7A9FF039BB2
:109DAC0006FA03F3436004E0C5F80C46621C06D0C7
:109DBC000026324613E0631CC5F800465FD1043719
:109DCC00B3E7661CC5F80446F9D0012603A8039432
:109DDC00FFF78EFF0122039B02FA03F383603B68BB
:109DEC00039403F40040002818BF002203A818BFF6
:109DFC00012601930092FFF77BFF039C019B00EB74
:109E0C008400D0F88040C3F3412C009A4FEA082319
:109E1C0043EA8C03134304EA0B04234343EA46034B
:109E2C00C0F88030CBE7C5F80846BFE7C5F8104648
:109E3C00AEE7C5F86045621C3B68C0D0C3F3004375
:109E4C00002BC2D0A6E7C5F86445F4E7C5F8684511
:109E5C00F1E7C5F86C45EEE703A80394FFF748FF5C
:109E6C00039B00EB8300D0F8803023F0E04343F0F9
:109E7C008043C0F88030631CA1D0012699E70026EE
:109E8C00A4E76FF0150053E709E30400F0F0FCFFC2
:109E9C002DE9F04104460D46476803F0B2F8A0B92D
:109EAC00274B1B788BB14FF02008642663681B6826
:109EBC00D3F830318BBB012002F0D6FD013EF5D139
:109ECC000021202001F0BCFCEFE72021EFF31183EF
:109EDC001A4681F31288BFF36F8F60680068D0F860
:109EEC00300120B983F31188BFF36F8FEEE77B6AE3
:109EFC0000201D706368796A1B68C3F83C17012148
:109F0C00C3F84017C3F83001D3F83001196582F358
:109F1C001188BFF36F8FBDE8F081EFF311831A4600
:109F2C0088F31288BFF36F8F61680968D1F830111C
:109F3C000029DCD183F31188BFF36F8FC0E700BF1A
:109F4C00F735012070B40D4CD4E90065901B63EB20
:109F5C000501400940EAC1604101891945EBD06512
:109F6C00C4E90015002400250549C1E90023054B6F
:109F7C00C3E9004570BC01F0C3BE00BFF83101203D
:109F8C00E0310120F031012008B500220121E3204D
:109F9C00FFF7AAF8164A0020D2F8183723F44033FA
:109FAC00C2F8183700F084FD002820DB012011498D
:109FBC0000F00AFE00281ADB00F054FD0E4B20F0D6
:109FCC001F00C3E900010D4B0022C3E900014FF053
:109FDC00FF304FF0FF310A4BC3E90001094B0A492E
:109FEC00187A00F04FFD67220020084B1A6008BD5C
:109FFC0000200E409C310120F8310120D831012085
:10A00C00E031012094310120519F040034350120AE
:10A01C0008B500F027FD064AD2E90032C01A054BFC
:10A02C0061EB0201C3E90001400940EAC16008BDCF
:10A03C00F8310120F0310120F7B5224B0146224FB7
:10A04C00187A224BD7E90056D3E900239E4208BF69
:10A05C00954211D1B1F1806F0ED24901012938BF5F
:10A06C00012101224D1946F10006C7E9005603B043
:10A07C00BDE8F04000F040BE154BDFF858C0D3E906
:10A08C000043DCE9002CA41843EB0C0C4FF0200E21
:10A09C0022466346C1FB0E23954276EB0301C7E9CA
:10A0AC0000230DD2291B66EB0C04C82974F10004A3
:10A0BC00B4BF01210021009100F0E6FD03B0F0BD1A
:10A0CC000021F8E794310120E8310120E031012032
:10A0DC00F8310120F03101200149024802F096BC10
:10A0EC00B1A10400383501202C4A00F00800136F90
:10A0FC00072B2BD0132B1CD0052B3AD1526D12F4FD
:10A10C00805F14BF1723162312F4006F18BF182397
:10A11C0012F4007F1EBF224B9B6B192312F4806F2D
:10A12C0018BF1A2312F4807F25D112F4005F18BFD8
:10A13C001C23CA6968BBC2F3080020B96FEA52221B
:10A14C006FEA4222CA611846FEF782BCD36DDA0769
:10A15C0013D49A0713D45A0713D41A0713D4DA0654
:10A16C0013D49A0613D413F0800F14BF2C23252379
:10A17C00DFE70023DDE71B23DBE72623D9E72723D3
:10A18C00D7E72823D5E72923D3E72A23D1E72B23A5
:10A19C00CFE722F4FF7222F00102D3E73835012019
:10A1AC0000ED00E000B5104B89B05A6AD86C0092F3
:10A1BC009A6A20F005000192DA6A694602921A6BDB
:10A1CC0003925A6B04929A6B0592DA6B06921A6C94
:10A1DC001B6D07929B0748BF40F00400FFF784FFFC
:10A1EC0009B05DF804FB00BF383501202DE9F041C2
:10A1FC0005460E461746984602F003FF70B90E4B03
:10A20C001B785BB14FF0FF324FF0FF330B4800F07F
:10A21C0019FF044618B16FF083050AE00124424689
:10A22C0039463046069BA847054614B9034800F04A
:10A23C0081FF2846BDE8F081F7350120C4310120AB
:10A24C00002300B589B0CDE9063303AB0493042396
:10A25C0003900593A9B10B6806934B6807930223EF
:10A26C00111E18BF01210848CDE9002140F2F5313B
:10A27C0004AA00F00BF80028B8BF012009B05DF863
:10A28C0004FB0123ECE700BF0501004010B4B1F55D
:10A29C00004F029C0ED2042B0CD8042C0AD8240498
:10A2AC0044EA0364134644EA0102014610BC034825
:10A2BC00FFF79CBF6FF0800010BC7047A10400003A
:10A2CC00034AD2F88C3043F44063C2F88C307047A8
:10A2DC0000ED00E0014B1B68184700BFAC350120B6
:10A2EC0010B50C4C237993B9012323710A4B002828
:10A2FC00206018BF184600F0F3F850B923680748DF
:10A30C00002B08BF1846BDE8104000F035B86FF0C0
:10A31C00770010BDAC350120E1A20400DFCA0400B7
:10A32C0008B5074B1B6853B140F20510FEF7CEFE83
:10A33C0028B9BDE8084040F20510FEF7B9BE08BDCB
:10A34C00AC35012038B504230A4C42F21075C4F820
:10A35C000833012363610023C4F80831D4F80831B1
:10A36C00D4F84C34DB0304D5012002F07DFB013D15
:10A37C00F6D138BD00E01040064A13793BB90121F3
:10A38C0010601171044A1846C2F8403470476FF0DF
:10A39C0077007047B435012000E0104010B51D4B1C
:10A3AC001D4CD3F84C14D3F84C2411F4803F18D026
:10A3BC0002F00302012A03D00AB1FFF7C3FF002207
:10A3CC00144BC3F840240022C3F80821D3F8082109
:10A3DC0001221A61226872B9D3F80821002AFBD035
:10A3EC0011E0D3F84824D107E9D5D3F850249207CB
:10A3FC00E3D422681AB10422C3F8042310BDD3F8A5
:10A40C000821002AFBD00022C3F80821D3F8083118
:10A41C00F4E700BF00E01040B4350120F8B5012589
:10A42C00184C194ED4F80C3303F00C0303B9F8BDD7
:10A43C00B3FA83F30027C3F11F039A0002F580726D
:10A44C0092B202F1804202F58712176005FA03F10D
:10A45C00022B1268D8B2C4F8081310D1D4F84C34BB
:10A46C00D4F84C349B070AD10423C4F84054C4F8E4
:10A47C0004332561D4F80C3303F00C03D6E73368AE
:10A48C009847F7E700E01040B4350120712238B549
:10A49C00104B0021C3F80823012242F210745A60B9
:10A4AC00C3F80011D3F800110B490A4DD1F8401331
:10A4BC001C2908BFDA60D5F80C3413F4803305D0AE
:10A4CC00012002F0D1FA013CF5D138BD034A537199
:10A4DC00FBE700BF00E0104000C0FF00BC350120CE
:10A4EC00054B0246187918B91A6001221A71704787
:10A4FC006FF07700704700BFBC3501200022164B6F
:10A50C00C3F81021D3F81011C3F81821D3F818117F
:10A51C00C3F81421D3F814111049D1F840131C2995
:10A52C0004BF01219960C3F80021D3F80021012256
:10A53C001A600B4A126852B9074BD3F80021002A53
:10A54C00FBD00022C3F80021D3F8003170477122F0
:10A55C00C3F80423704700BF00E0104000C0FF00A8
:10A56C00BC350120F8B50126194C1A4DD4F80C3322
:10A57C0003F0710303B9F8BDB3FA83F30021C3F1FF
:10A58C001F039A0002F5807292B202F1804202F52A
:10A59C008712116006FA03F7042B1268D8B2C4F8BC
:10A5AC00087308D0062B10D02B689847D4F80C33BE
:10A5BC0003F07103DEE702236B71C4F81411D4F8B5
:10A5CC0014312023C4F80433EEE76971ECE700BFC3
:10A5DC0000E01040BC350120036803F01F025F2B24
:10A5EC0002604FEA53129ABF024B53F8220000202C
:10A5FC00704700BF04DE0400034A4309D35C00F03B
:10A60C001F001844C0B270471DE30400F0B50646A5
:10A61C00002487B0114F019117F8012B06AB03EB07
:10A62C00D20313F8143C02F00702D34013F00103D9
:10A63C0006D10134032CEFD10023184607B0F0BD2E
:10A64C00074A03AD07CA85E8070055F824100A6AC3
:10A65C0046F824200A62002AEBD0EEE72DE3040032
:10A66C00C0DC0400F7B504460846FFF7C5FF06B288
:10A67C0004EB4606B38A0D46DB072BD5204602F0C9
:10A68C002DFB2946204602F099FA58B1204602F0DB
:10A69C00ABFA0022276800B207EB8003C3F8102541
:10A6AC00C3F810252946204602F0C7FA002101A85C
:10A6BC00B1820195FFF790FF019B00EB8300D0F86E
:10A6CC008020064B134043F00203C0F8803008464C
:10A6DC0003B0F0BD6FF01500FAE700BFF0F0FCFF1F
:10A6EC002DE9F043044685B0084616461D46FFF793
:10A6FC0083FF0F46804636B3204602F06AFA18B93B
:10A70C00204602F05BFA28BB0FFA88F904EB4909E2
:10A71C00B9F8143013F01C0F02D07378012B19D038
:10A72C0001238DF80F3000233846CDE90063721CED
:10A73C00B31C0DF10F0102F0E9F9B9F8143043F034
:10A74C000303A9F81430002D40D03946204602F0FE
:10A75C0040FA20B96FF0150005B0BDE8F083002277
:10A76C00297823684FEA810C03EB8103C3F8102589
:10A77C00C3F810250FFA88F204EB4202938A23F4F3
:10A78C00604323F0200393826E78FEB12468A8788E
:10A79C006444D4F810550E4B36042B40C4F81035D5
:10A7AC0041F6F07306F4403603EA07130005D4F8BB
:10A7BC001055334300F4801003432B43C4F8103579
:10A7CC00938A43EA413343F0200393820020C3E78A
:10A7DC000FE0ECFF70B590F87440054690F875608A
:10A7EC0024BB21464622143002F0D1FC2146114BE9
:10A7FC00286853F836608E420ED10024C0F84041D0
:10A80C00D0F84031C0F30830FEF752FC012320464B
:10A81C0085F874302B6670BDCBB29B0003F580724B
:10A82C00402B04BF845083580131E4E76FF077006C
:10A83C00F1E700BF10DE040090F87500024B03EB4B
:10A84C00800002F02DB900BFA431012010B5064BD9
:10A85C0090F875000C4603EB800002F007F9002815
:10A86C00A4BF2070002010BDA43101202DE9F04FB1
:10A87C00814659F8043B8BB0D3F8041390F875401B
:10A88C0000936C4BC9B241F48031804653F83420AC
:10A89C00009802F0FCF9C10305463AD50023CDE936
:10A8AC0007330993634B07A803EBC4035B68194692
:10A8BC000193FFF7ABFE042303EBC40303934FF0A8
:10A8CC00000B5D4B0DF11C0A0293029A594912F8C8
:10A8DC00013B0292039A02EBD3028A5C03F007035A
:10A8EC0022FA03F3DA071AD40BF1010BBBF1030FB5
:10A8FC000AF1040AE9D14FF480310022009802F0E9
:10A90C00C6F9019907A8FFF781FE0028D7D125F4D5
:10A91C0080350124002D75D10BB0BDE8F08F474B6D
:10A92C005B440493DAF800100029DDD091FAA1F110
:10A93C00B1FA81F1049B1C7841EA44142046FFF7DC
:10A94C005BFE08EB4000878AC808BB08059301230F
:10A95C001AF8002001F0070103FA01F122EA0102C2
:10A96C000AF8002006A80694FFF736FE069A059B07
:10A97C00203250F82220C7F382065B073746C2F319
:10A98C00014223D54846D6B221463A4602F036F962
:10A99C0006A80694FFF720FE069B203350F82330C0
:10A9AC00C3F301439E4207D10021204602F0F7F881
:10A9BC003146204602F0F3F806A80694FFF70CFE89
:10A9CC000122069B02FA03F30362ABE7022A0DD1C4
:10A9DC000321204602F0E3F806F00503012BEBD12E
:10A9EC003A462146484602F009F9E5E7022120469D
:10A9FC00059202F0D4F8032EF2D0059A032ADBD18B
:10AA0C00022EECE795FAA5F3B3FA83F3009904FA56
:10AA1C0003F225EA020503F5A27251F8222008EB95
:10AA2C0043034846B3F86410C2F3014202F0E6F85F
:10AA3C0070E700BF10DE04002DE304002DE30400DA
:10AA4C00074B027AD3F8101521F001010A43C3F821
:10AA5C0010250268C3F8A4264268C3F8AC267047D8
:10AA6C0000200E404FF0FF326FF0404330B5044CE5
:10AA7C00D4E90001824273EB0105F9D330BD00BF6C
:10AA8C0030270E4030B50C25074B1C1894F8544059
:10AA9C0005FB0433C3E9031218750123034A8340F1
:10AAAC00C2F8143330BD00BF0030012000200E402E
:10AABC00F0B53D4D85B02C78002C6FD13B4A01ABE5
:10AACC0007CA83E807003A491846D1F8102522F046
:10AADC000202C1F81025FFF7B3FF0723672202F02B
:10AAEC0001012144013BCCB24FEA5202F7D1052CB3
:10AAFC0057D119464FF0010C2B4E00246720CFB2D2
:10AB0C0004E00CFA02F220EA0200013490FAA0F2FE
:10AB1C005FFA84FEBE45B2FA82F2F2D3013132758D
:10AB2C0005292A4482F8547006F10C06E5D101215E
:10AB3C00002420489A0801FA02F212F0670F18BF9D
:10AB4C001C500433302BF5D1E320FEF7B1FA184B2F
:10AB5C001949D3F8102503F5C07322F00202C3F88B
:10AB6C00902340F6FF72C3F8982100221A60A3F5D7
:10AB7C00807004338B420260F8D101240C4B0F4AD5
:10AB8C001C660F4B5D201B68B3FBF2F358430D4B57
:10AB9C002343984700202C7005B0F0BD6FF0770070
:10ABAC00FAE76FF08B00F7E700300120CCDC0400F3
:10ABBC0000200E4000210E40B0210E4040420F00FC
:10ABCC00A0310120F0DC040073B52B4C0546636802
:10ABDC0001A803F001030E46019301F047FF002882
:10ABEC003FDB002320753370636823F0010363603F
:10ABFC00A36843F00103A360204BD3F81025900702
:10AC0C0033D4D3F8102542F00202C3F81025C5B195
:10AC1C00D3F8382712F0010202BFD3F8381741F0ED
:10AC2C000101C3F83817154BD3F83017D3F8341784
:10AC3C004900F9D42AB9D3F8382722F00102C3F815
:10AC4C0038270F4B0F4A1B68B3FBF2F30B4A03EB8D
:10AC5C0043136BB1D2F83017D2F8340710F08040A0
:10AC6C0001D102B070BD013BF3E76FF07700F8E75C
:10AC7C006FF07300F5E700BF0030012000200E409C
:10AC8C00A031012040420F0070B51D461446184AF1
:10AC9C009DF81060131893F8543000B20C3302EB8B
:10ACAC00C30142F833404D60C5F31301AEB102014C
:10ACBC00104E02F1804202F562228000C2F820455B
:10ACCC000644C2F82415336833B1FFF7CBFEA0421B
:10ACDC00A94101D20023336070BD030103F180430D
:10ACEC0003F56223C3F82045C3F82415F4E700BF2D
:10ACFC000030012000210E40F0B50E4D2B1893F8BA
:10AD0C00543000010C3355F8334005EBC3077E6813
:10AD1C00641800F1804021F0004146F1000641EA40
:10AD2C00C27100F5622045F833407E60C0F82815EA
:10AD3C00F0BD00BF00300120F7B5284B284CD3F8EC
:10AD4C001C6304F188070EB903B0F0BD96FAA6F0A7
:10AD5C000123B0FA80F08340DA43224926EA030645
:10AD6C00231893F85450830019440C2303FB054318
:10AD7C00DB6873B3D7E8EF3F03EA020CC7E8EECF0A
:10AD8C00BEF1000FF6D1C340DB0719D5020102F169
:10AD9C00804202F56222D2F82435D2F82025D1F86F
:10ADAC0000C0BCF1000FCED04FF0000CC1F800C0B9
:10ADBC000C2101FB054529690091E9688847C2E728
:10ADCC0005F10C0304EBC30C54F83320DCF804300D
:10ADDC00E5E70A68002AB6D00B60B4E700200E4005
:10ADEC000030012000210E4038B5EFF311852023EF
:10ADFC0083F31288BFF36F8F064B9C6802F0EBF85D
:10AE0C0085F31188BFF36F8F2046BDE83840FEF7FD
:10AE1C00EFB800BFC435012038B50A4B53F82040B9
:10AE2C00013053F82050A54200D838BD606830B1CD
:10AE3C00037FDB0701D402F0A3F80834F3E723689F
:10AE4C009847FAE720DE0400012270B5294B032055
:10AE5C0086B01A70FFF7E0FFFDF7C4FD0420FFF782
:10AE6C00DBFF254C254D2646AE4204F1300410D3B1
:10AE7C0000F016FC204C224EAC4226D300F024FCF1
:10AE8C0001F00FFA1F4A137B23F00103137306B072
:10AE9C0070BD54F80C3C059354F8103C049354F8D2
:10AEAC00143C039354F8183C029354F81C3C019343
:10AEBC0054F8203C009354E90A2354E90C0100F0A7
:10AECC00E3F954F8303C5E65CDE7D4E90A23B3F1DD
:10AEDC00FF3F08BFB2F1FF3F05D052EA03012068E3
:10AEEC0003D100F0DBFC3034C6E73146183000F0FB
:10AEFC0077FEF8E7F735012024DC040024DC04009D
:10AF0C00F3D00400C8320120C82370B5144E86B0AB
:10AF1C0003FB0066134B012205930F23CDE903328B
:10AF2C000023CDE9013314234FF4A0720E4D0F49C9
:10AF3C0003FB0055044602FB00110D4B30460095F7
:10AF4C0000F0A2F9737B2C7423F004037373094B88
:10AF5C00013403EBC423EE606B6006B070BD00BF20
:10AF6C000032012030E30400C4350120003E0120F2
:10AF7C00E9CF040000360120BFB50020FFF74CFFDD
:10AF8C00284B03F5006282F3088883F30A880024B7
:10AF9C00E023254D254F85F82230EC772C766C7606
:10AFAC00AC7685F820406B6A43F4E0236B6285F83D
:10AFBC002340FDF797FFFEF711F94FF0FF33AB621B
:10AFCC00EB62FEF79BFAFEF731F9194800F0C4F971
:10AFDC000120FFF721FF0220164DFFF71DFF00F0A7
:10AFEC00A7FB154B15495D61154B4FF4806205931A
:10AFFC0001232846CDE90343CDE901443B460094A7
:10B00C0000F042F906466A7B284622F004026A7375
:10B01C0002F037F82046FFF777FF3A4631462846CC
:10B02C00FEF7BAF80036012000ED00E055AE040042
:10B03C0090330120C8320120C4350120403F01204B
:10B04C0035E304002DE9F341044617461E46EFF3A1
:10B05C001188202383F31288BFF36F8FC368334AA0
:10B06C007BB180689168884219D057EA060318D1E1
:10B07C0088F31188BFF36F8F6FF00F0002B0BDE83B
:10B08C00F081916891F90E100133E36093682161AE
:10B09C00A36088F31188BFF36F8F0020EEE721695E
:10B0AC00F2E791F90E1090F90E306FF07E02994292
:10B0BC00A8BF19469142B8BF11468B422DDD01F055
:10B0CC0098FF054622464146CDE90076184800F027
:10B0DC002DFA0028E1D0EFF31186202383F3128898
:10B0EC00BFF36F8FA068D0B1236821699C420AD04E
:10B0FC004BB193F90E309942A8BF19466FF07E03FD
:10B10C009942B8BF194601F074FF40B13146084866
:10B11C0000F0A0FA6FF00A00B0E70025D2E7002D8E
:10B12C00F4D186F31188BFF36F8FF3E7C435012098
:10B13C00F8350120F8B583680546002B40D0234A2A
:10B14C00926893423FD1C368012B03D9013BC36082
:10B15C000020F8BDEFF31187202383F31288BFF38F
:10B16C006F8F0169806801F044FF2C68A54207D1FC
:10B17C000023C5E9023387F31188BFF36F8FE7E72C
:10B18C00002CF5D0D4E90032002613605A60637BA2
:10B19C00C4E9006623F002036373A66004F118008F
:10B1AC0001F0BCFFAC6094F90E3020462B61C4F862
:10B1BC00BC6001F066FF3946054800F04BFAC7E762
:10B1CC006FF01500C5E74FF0FF30C2E7C435012022
:10B1DC00F835012070B5EFF31186202383F3128824
:10B1EC00BFF36F8F0468A0421BD0D4B1D4E90032F6
:10B1FC00002513605A60637BC4E9005523F00203F9
:10B20C006373A56004F1180001F088FF2046C4F8B0
:10B21C00BC5001F036FF3146BDE87040064800F0E6
:10B22C0019BAD0E902329A4218BF0133836086F30F
:10B23C001188BFF36F8F70BDF835012013B5EFF394
:10B24C001181202484F31288BFF36F8F846844B17A
:10B25C00013C846081F31188BFF36F8F002002B032
:10B26C0010BD52EA030406D181F31188BFF36F8F2E
:10B27C006FF00F00F3E7CDE900230246014800F020
:10B28C0055F9ECE7F83501202DE9F04F984685B0DB
:10B29C0000F15803C0E91633129B002503730423F5
:10B2AC00D61D26F007064373119B01EB060A0F46C9
:10B2BC00C0E90655514685608373C5730446DDF8B5
:10B2CC0038B0DDF84C90FDF7F7FB109B073020F001
:10B2DC000700C4E92976C4F8AC0002930F9BAAEBD3
:10B2EC000006CDE900B33246434639462046FDF709
:10B2FC0033FF0F9BC4E91C8BA367109B656584F817
:10B30C006C50E367EFF31183202282F31288BFF3B2
:10B31C006F8F104F3A6A3C62C4F8802083F3118817
:10B32C00BFF36F8FB9F1000F11D01F22494604F102
:10B33C00840001F034FF84F8A350BB680BB1D3F840
:10B34C00B0303046C4F8B03005B0BDE8F08F84F8AA
:10B35C008490F2E7C435012040F20113838100236D
:10B36C00C0E92933C0F8B030014B9860704700BF7A
:10B37C00C43501206FF00A01094A9368C3F8BC1068
:10B38C000849C3F8B8004B6843F080534B60002366
:10B39C0083F31188BFF36F8F9368D3F8BC007047A9
:10B3AC00C435012000ED00E070B590F90D20437B11
:10B3BC00002A36DBD90634D11B4C63F07F032246BE
:10B3CC00437352F8183FE169934207D1C0E9002159
:10B3DC000860E06111E09942F8D01B68002BF5D0B1
:10B3EC0090F90E5093F90E60B542F4D0AE42F2DDF6
:10B3FC005968C0E9003108605860A569954200D0D1
:10B40C0005B9E568A3685A7BD20604D1DA897F2A8C
:10B41C0001D9AA6932B1AB4202D0284600F038FB00
:10B42C00656170BD6361FCE7C435012038B590F9E6
:10B43C000D200146002A437B04DA03F07F0343739B
:10B44C0001F0E5FD0D4D2A4652F8184FAB689442B9
:10B45C0000D004B9EC688B4207D05A7BD20604D1D9
:10B46C00DA897F2A01D9A2692AB1A34202D02046E7
:10B47C0000F00EFB23466B6138BD00BFC4350120C4
:10B48C00B3F1FF3F08BFB2F1FF3F03D002491830C0
:10B49C0000F0A6BB704700BFF3D0040070B590F964
:10B4AC000D200146002A437B04DA03F07F0343732B
:10B4BC0001F0ADFD1C4C4B7B224663F07F034B73BC
:10B4CC0052F8183FE069934207D1C1E900200160AE
:10B4DC00E16111E09842F8D01B68002BF5D091F98E
:10B4EC000E5093F90E60B542F4D0AE42F2DD5868BE
:10B4FC00C1E9003001605960A569A368954200D08C
:10B50C0005B9E5688B4207D05A7BD20604D1DA899B
:10B51C007F2A01D9AA692AB1AB4202D0284600F091
:10B52C00B7FA2B46636170BDC4350120F8B5DDE96F
:10B53C0006670D4B0C46986811460C4A1060EFF3E9
:10B54C001182202282F31288BFF36F8F9D682846E8
:10B55C0001F06FFD284632463B46FFF791FF20462F
:10B56C00BDE8F840FFF706BFC4350120E8350120DF
:10B57C00F8B50446EFF31187202383F31288BFF349
:10B58C006F8F437B49B203F01F02002A0CBF0126C8
:10B59C00002639D103F07F032D4D437301F037FDA5
:10B5AC002A46437B817363F07F03437352F8183F41
:10B5BC00934227D1E869C4E900200460EC610FE0F4
:10B5CC009842F8D01B68002BF5D093F90EC061455A
:10B5DC00F6D08C45F4DD5968C4E900310C605C6030
:10B5EC00AC69944200D004B9EC68AB689C4202D0C0
:10B5FC00204600F04DFA6C6187F31188BFF36F8F12
:10B60C003046F8BDE869DEE79B071ED5856801F07A
:10B61C00FEFC81732B689D4209D16B68C4E9005311
:10B62C001C606C60E8E76A689342F6D01B68002BDC
:10B63C00F3D093F90E209142F5D08A42F3DD5A688B
:10B64C00C4E9003214605C60D6E78173D4E700BFB4
:10B65C00C435012049B9EFF3058030B9054B5A695F
:10B66C009B689A4201D0FFF785BE81F31188BFF326
:10B67C006F8F7047C4350120034648B9EFF305823C
:10B68C0032B9064A51699268914201D0FFF772BEF5
:10B69C0083F31188BFF36F8F704700BFC43501204F
:10B6AC00EFF31181202383F31288BFF36F8F054BC7
:10B6BC009A68D37B013BD37381F31188BFF36F8FEF
:10B6CC00704700BFC435012070B5EFF311862023FD
:10B6DC0083F31288BFF36F8F144DAB68DA7B0132A2
:10B6EC00DA732A4652F8184F944200D004B9EC6829
:10B6FC005A7BD20604D1DA897F2A01D9A2692AB1F0
:10B70C00A34202D0204600F0C3F923466B6186F3B6
:10B71C001188BFF36F8FEFF31180202383F312880E
:10B72C00BFF36F8FBDE87040FFF7A6BFC435012093
:10B73C00024B03F11802C3E906227047C4350120FD
:10B74C0070B5EFF31186202383F31288BFF36F8F4C
:10B75C001B4CA168E0690B68814214BF1A46002299
:10B76C0049680B605960A368E1692AB9154AC3E9B5
:10B77C0000210B60E3610CE093F90E0092F90E507E
:10B78C00A84218D0854216DD5168C3E900210B6030
:10B79C005360A5690B4B9D4200D005B9E568A368C1
:10B7AC009D4202D0284600F073F965613046BDE831
:10B7BC007040FFF7DFBD8A42D8D01268D5E700BFD2
:10B7CC00C4350120DC350120F8B550EA01030646EA
:10B7DC000C4603D1FFF7B4FF0020F8BDEFF311873F
:10B7EC00202383F31288BFF36F8F124D124BA8687E
:10B7FC001860FFF71BFEA868234632460F49183025
:10B80C0000F0EEF9AA680446537B384643F0040373
:10B81C005373FFF7AFFDAB68D3E90A23B3F1004FC5
:10B82C0008BF002AD8D101F0A1FC201A20EAE07050
:10B83C00D3E700BFC4350120E8350120F3D0040064
:10B84C0038B504460D46FFF7BFFFB5F1FF3F08BF03
:10B85C00B4F1FF3F0246204618D000234FF47A740F
:10B86C0047F611201946C2FB040147F612229042FA
:10B87C0071F100020BD3084B834243F608538B4102
:10B88C0007D347F612220023FCF7F2FD38BD184609
:10B89C00FCE76FF00040F9E7ED85FFFF38B5044693
:10B8AC00EFF31185202383F31288BFF36F8F437B53
:10B8BC005B070FD5183001F031FC637B204623F079
:10B8CC0004036373FFF770FD2946BDE83840044854
:10B8DC00FFF7C0BE85F31188BFF36F8F38BD00BF73
:10B8EC00F8350120014B9868704700BFC435012022
:10B8FC002DE9F8430446077BEFF31185202383F3EE
:10B90C001288BFF36F8F437B190705D585F3118818
:10B91C00BFF36F8FBDE8F883D90943F0080260D1FB
:10B92C004273A36813B1204601F079FB04F11800AF
:10B93C0001F0F4FBA66D04F15808B04511D04FF09E
:10B94C00000976B1304601F06AFB06F1180001F0EF
:10B95C00E5FB3046C6F8BC90FFF726FDA66DB0455A
:10B96C00EFD1DFF8C480D8F808309C4241D1EFF316
:10B97C000589B9F1000918BF4FF00109D8F8186012
:10B98C002A4A964200D00EB9D8F80C60B34202D0C5
:10B99C00304600F07DF82046C8F8146000F063FED5
:10B9AC00204600F0CDF8B9F1000F02D02048FFF787
:10B9BC00D3FCD8F808309C4231D1EFF3058373BB2C
:10B9CC00227BD20718D42846FFF7D4FCFB07A1D55D
:10B9DC00002383F31188BFF36F8F0423184602DF13
:10B9EC0098E703F07F0343F00803437301F00FFB68
:10B9FC0097E74FF00009C1E785F31188BFF36F8F0C
:10BA0C0083F31188BFF36F8F0423184602DFEFF323
:10BA1C001180202383F31288BFF36F8FD4E785F353
:10BA2C001188BFF36F8FD1E7C4350120DC350120BD
:10BA3C00903301200122044BC01A044BC010584310
:10BA4C00034B1A54704700BF58340120ABAAAAAA62
:10BA5C00F8350120C3897F2B12D80A4B1B6863B1C0
:10BA6C00094B90F90E201B689A4209DB437BDB06DD
:10BA7C0006D1064BC31A18BF012303F0010070470F
:10BA8C000023FAE7AC310120EC3501200032012013
:10BA9C0070B50E4B0E4C1E7C054606EB460304EBB4
:10BAAC00C304204601F03AFB00220A4B28469A5563
:10BABC00FFF7D0FF48B1084B2046BDE870401A682C
:10BACC000649013AD31700F08BB870BDC43501207C
:10BADC0058340120F8350120AC31012041BA040062
:10BAEC0038B5EFF31185202383F31288BFF36F8FE2
:10BAFC00104B114A9C681068A04206D1FFF7C8FF92
:10BB0C0085F31188BFF36F8F38BD00211B7C11604A
:10BB1C000A4AD35C002BF3D02046FFF79BFF00288A
:10BB2C00EED0637BDB0602D12046FFF7B7FC204644
:10BB3C00E4E700BFC4350120E8350120F8350120C9
:10BB4C00EFF31181202383F31288BFF36F8F0C4A1C
:10BB5C00136A834208D1D3F88030136281F31188C1
:10BB6C00BFF36F8F70471346002BF7D0D3F88020AC
:10BB7C008242F8D1D0F88020C3F88020EEE700BFD5
:10BB8C00C4350120024B1868984208BF002070474A
:10BB9C00B0310120034B1B680BB9FEF739BA0020FA
:10BBAC00704700BFF035012030B570B10B4B5B68AE
:10BBBC0098420AD0036843B1D3E90421D0E9044583
:10BBCC00121941EB0501C3E90421D0E900321360DD
:10BBDC005A600023C0E9003330BD00BFB0310120F2
:10BBEC00B3F1FF3F08BFB2F1FF3F2DE9F84F044618
:10BBFC00994615461F467AD08160EFF311882023B1
:10BC0C0083F31288BFF36F8FB9F1000FDFF8E4A054
:10BC1C0020DBFFF7BFFFDAE90027013549F1000906
:10BC2C002D1849EBE07306464FF00109C4E90453A3
:10BC3C00AD1843EB0707FFF7A5FF0346DFF8B8E0A5
:10BC4C00DEF804A0EBB9C4E900EACAF80040CEF86B
:10BC5C00044028E06FF00103DAE900125B1A4FF0A0
:10BC6C00FF3161EB02025B1B62EB0902012B72F1EB
:10BC7C000001BCBF012300224FF00009C0E90432CF
:10BC8C00D9E7D3E9041CD4E904208A4270EB0C0BED
:10BC9C0024DA891A5A686CEB0000C3E90410C4E971
:10BCAC00003214605C60FFF76DFF84420ED1134BC1
:10BCBC001B685BB9B9F1000F02D1FFF76BFF0646A9
:10BCCC00304601F014FA0021FEF7B6F988F311881A
:10BCDC00BFF36F8F28463946BDE8F88F521A60EBD8
:10BCEC000C009A45C4E90420ADD01B68AAE70025D6
:10BCFC002F46EFE770340120B0310120F0350120E0
:10BD0C002DE9F047EFF31185202383F31288BFF35D
:10BD1C006F8FDFF8A0900026C9F800000027FFF70E
:10BD2C0031FFDFF89480D9F80030D8E900ECD9174E
:10BD3C0050B1D0E90442A34271EB020A1BDAE41AB7
:10BD4C0062EB0102C0E90442002413EB0E034CEB3E
:10BD5C0001012046C8E90031C9F8004001F0C7F9DB
:10BD6C002146FEF769F985F31188BFF36F8FBDE8A3
:10BD7C00F047FFF7B5BE14EB0E024CEBE473C0E9D1
:10BD8C000467C8E90023FFF70FFF85F31188BFF3A1
:10BD9C006F8F83689847EFF31185202383F3128804
:10BDAC00BFF36F8FD9F800301B1BC9F80030FFF7B9
:10BDBC00E9FEB8E7F03501207034012010B5EFF33F
:10BDCC001184202383F31288BFF36F8FFFF7E2FEF9
:10BDDC000346054AD2E90001181841EBE37184F3DC
:10BDEC001188BFF36F8F10BD703401202DE9F04F17
:10BDFC0043688DB015468046029383789A0740F1CC
:10BE0C000D8100240E78002E00F00A81252E0BD017
:10BE1C004B1C0393013441463046029B9847002843
:10BE2C00C0F2F6800399EDE74E788B1C252E039318
:10BE3C00F0D00027B946BB46BBF11F0F38D8A6F18E
:10BE4C002003102B0AD8DFE803F02A09093009096E
:10BE5C00092109090928092D09091F00A6F1300338
:10BE6C00092B33D92A2E37D11BF0400F55F8043B40
:10BE7C0040F08280002BA7BF4BF0200B9946C3F1FA
:10BE8C0000094BF0280B01E04BF0010B039B13F85E
:10BE9C00016B0393002ECFD130E04BF0020B4BF033
:10BEAC00040BF3E74BF0080BF0E74BF0100BEDE74E
:10BEBC00BBF17F0F19D8A6F13003092BD2D81BF098
:10BECC00400F03D00A2101FB0737DFE70A214BF0B3
:10BEDC00200B01FB0939D9E72E2E06D11BF0400FA0
:10BEEC0040F09E804BF0400BD0E76C2E31D02BD81D
:10BEFC00682E36D06A2E3CD04C2E3AD0002F46F00D
:10BF0C002003B8BF2BF04002A3F16501BCBF002792
:10BF1C001FFA82FB022901D9612B2FD10735072784
:10BF2C00DFF8ACA225F0070508351BF0080F66D02A
:10BF3C000AEB070B56465E4563D1A4EB0A0AA9EB44
:10BF4C00070906EB0A026FE1742E9FD07A2E9DD062
:10BF5C00D4E71BF0800F18BF4BF4007B4BF0800B29
:10BF6C0094E71BF4807F18BF4BF4007B4BF4807B71
:10BF7C008CE74BF4207B89E71F4687E7A6F163012A
:10BF8C00122900F2F080DFE811F013004F00EE00F0
:10BF9C00EE00EE00EE004F00EE00EE00EE00EE00C4
:10BFAC00EE00FE00E900EE00EE001B00EE00AF001C
:10BFBC0055F8043B01270DF1180A8DF81830B4E739
:10BFCC0055F804AB834BBAF1000F08BF9A461BF02F
:10BFDC00400F504614BF39464FF0FF3101F0EFF8D7
:10BFEC000746A2E741462020029B984700280FDB1A
:10BFFC00013EB742F6D34C44B146A41B98E74E46DB
:10C00C00F7E7414616F8010B029B9847002892DA95
:10C01C0098F8023043F0040388F802304FF0FF34F4
:10C02C0020460DB0BDE8F08F1BF0800F34D01BF410
:10C03C00007F2CD0073525F00705AA4669685AF809
:10C04C00080B2BF010050029ADB237DA404245F44D
:10C05C00806561EB41010DF1180B0A235A4601F082
:10C06C00BAF8A0EB0B0301936B0662D5019B25F08C
:10C07C0001019F4289B240F3A180002E00F099800B
:10C08C0015F0100240F09C80BB460D4623E0AA46FA
:10C09C005AF8040BC117D4E7AA461BF4807F5AF850
:10C0AC00041B01D10846F5E71BF4007F19BF48B209
:10C0BC0041F3C01108B241F3C031C2E750EA0103A9
:10C0CC00C9D11BF0400FC6D0002FC4D12BF01102E8
:10C0DC00BB46019795B240F2064115EA01021CBF1E
:10C0EC000BF1010B00222CE02BF010020A231FFA9B
:10C0FC0082FB1BF0800C49D01BF4007115BF073577
:10C10C00AA4625F007055AF8040B1EBFAA46696813
:10C11C005AF8080B50EA010545D12BF016051BF017
:10C12C00400FADB242D0002F40D12BF01702019737
:10C13C0095B215F0100248D0019B002E42D103F1AC
:10C14C00010B29075AD4EB0706D5D9456FDDA9EBAE
:10C15C000B030199CB465F185B4649E04BF0100B83
:10C16C0010237826C5E7782B04D1C6F1780343F069
:10C17C001003BEE741462520029B98470028FFF696
:10C18C0047AF023447E608230026B2E7AA461BF461
:10C19C0080715AF8040BBDD01BF400711ABFC0B2E9
:10C1AC00614680B2B6E72BF0060295B20DF1180B82
:10C1BC0054E725F01105BB46ADB28CE70D46B8E748
:10C1CC003B460D4603F1020BBBE7DDF804B082E7FA
:10C1DC0041E304003AE30400CDE904324146202057
:10C1EC00029B98470028FFF613AF049B059A013376
:10C1FC009945F1DCA4EB0B019B46CC180AB34146E4
:10C20C003020029B98470028FFF602AF8EB901340C
:10C21C002744391B019B994224DC1D4655BB019ACE
:10C22C00A9EB0B09554622441446914433E0019F77
:10C23C0092E7023441463046029B98470028E7DAE1
:10C24C00E6E640F206410D42E2D015F0020F04F191
:10C25C000104414614BF2B20202015F4806F18BF19
:10C26C002D20E9E741463020029B013498470028F5
:10C27C00CFDACDE606AB013D4146585D029B9847AF
:10C28C000028CBDAC4E641462020029B01349847B3
:10C29C000028FFF6BDAEA9EB0403002BF3DCC1E5CF
:10C2AC00704700207047836800EBC101B3F5004F65
:10C2BC002CBF51F8220031F81200704700EBC1017D
:10C2CC008068B0F5004F2CBF41F8223021F81230B5
:10C2DC007047012208B5FFF7E6FFD04008BD836820
:10C2EC0000EBC101B3F5004F08D34B681AB143F012
:10C2FC0001034B60704723F00103FAE74B881AB136
:10C30C0043F001034B80704723F00103FAE753001D
:10C31C000122FFF7D3BF8368481CB3F5004F34BF2D
:10C32C00042308230833A0EBD300B0FA80F0C0F14B
:10C33C001F0070472DE9F0410D4686680446FFF753
:10C34C00C8FFB6F5004F014601D3012832D0204674
:10C35C00FFF7E1FF04EB80010E6996B90122E36857
:10C36C0082401343E36002220D612B46294620468E
:10C37C00FFF7A4FF032229462046BDE8F041FFF752
:10C38C009DBF022231462046FFF78DFF074603462C
:10C39C0029462046FFF792FF0322334629462046C2
:10C3AC00FFF78CFF39462B462046FFF787FF02220A
:10C3BC003146E1E7BDE8F081B2F5802F2CBF0823B0
:10C3CC0004232DE9F0410026D21A8C18CD1D25F03E
:10C3DC00070524F00704641BE40805602146284681
:10C3EC00AC60EE60FFF797FF421D9200013002F146
:10C3FC0007074FEAD7073146A2F1100205F11000EA
:10C40C00B8BF324600F0C3FE3A4631462846FFF725
:10C41C007EFF3346324631462846FFF74FFFA4EBEA
:10C42C000708284631460122FFF759FF4246394694
:10C43C00FFF76DFF3B46324639462846FFF73EFF75
:10C44C0021462846FFF763FF4346324621462846DD
:10C45C00FFF734FF214628460122FFF740FF3946FB
:10C46C00BDE8F041FFF766BF002070470FB407B579
:10C47C0004A951F8040B0191FCF76EF903B05DF8B7
:10C48C0004EB04B07047038B13F0070305D103686A
:10C49C00002B0CBF002003207047022B05D1408BD2
:10C4AC00B0FA80F0400980007047012B05D1036879
:10C4BC00002B0CBF0020052070470020704710B5E2
:10C4CC000C4600B111B96FF0150010BD081D00F03D
:10C4DC0093F80028F9D1A368032BF6D9F3E72DE9DB
:10C4EC00F0410D4607461946281D90461E4600F0A1
:10C4FC0094F8044638B13346424629463846A44699
:10C50C00BDE8F0416047BDE8F08110B4EFF3118253
:10C51C00202484F31288BFF36F8F416110BC01217A
:10C52C00FCF74CB938B50C46054658B151B10B68FF
:10C53C0043B14B6833B11C22002100F028FE0020CF
:10C54C002C6138BD6FF01500FBE770B505460E4643
:10C55C00FFF7B5FF041E14DBEFF31182202383F3E6
:10C56C001288BFF36F8F4FF6FF716B8B2C8B8B4246
:10C57C0004F0070407D182F31188BFF36F8F6FF0BB
:10C58C000A04204670BD022C0CD101336B8382F35C
:10C59C001188BFF36F8F0023224631462846FFF7E0
:10C5AC009EFFEEE7062C14D8DFE804F004131313F7
:10C5BC00041A0400002333606B683BB9C5E90066BC
:10C5CC00ACB902212846FCF7F9F8DAE71E606E6078
:10C5DC00F6E782F31188BFF36F8F6FF00404D0E796
:10C5EC0082F31188BFF36F8F6FF08504C9E782F374
:10C5FC001188BFF36F8FC4E7034658B1426802F04D
:10C60C000302012A03D0032A04D1026812B10020CC
:10C61C00986070476FF0150070474268034602F04F
:10C62C000302032A4FF00002816014BF1046006819
:10C63C005A607047704700F0AABD00F09BBD0146E0
:10C64C000068FCF705BA08B5FCF732FABDE80840FB
:10C65C00FCF752BA00210120FCF7FAB9D0F8A4304B
:10C66C0083F30B8870476FF08500704761B662B634
:10C67C0080F31188BFF36F8F704772B6002383F37A
:10C68C001188BFF36F8FBFF34F8F30BF62B6BFF30C
:10C69C006F8F704772B6002383F31188BFF36F8FCF
:10C6AC00BFF34F8F20BF80F31188BFF36F8F62B63B
:10C6BC00704740E800F313F4803FD8B208BF6FF026
:10C6CC001500704730B50C684B6885B00A894D89E8
:10C6DC000094013B24F01F04234402F01F0242EAA1
:10C6EC00451223F01F0369468DF808200393FCF7CD
:10C6FC00D3FD05B030BD08B5FCF78EFF002008BD9A
:10C70C000C220369C9B201FB0233186C00F007005C
:10C71C00704770B5C9B20369EFF31185202484F317
:10C72C001288BFF36F8F0C2606FB0134246C14F0B7
:10C73C00C00408D0A24206D085F31188BFF36F8FD6
:10C74C004FF0FF3070BD012206FB01331A6485F3F4
:10C75C001188BFF36F8F436803EBC1035B68984785
:10C76C000020EFE78022FFF7D4BFF8B5069F0469DD
:10C77C00C9B2EFF31186202585F31288BFF36F8FB2
:10C78C000C2505FB0144256C05F0070CBCF1010FD1
:10C79C000CD1276486F31188BFF36F8FC4E90E2385
:10C7AC00436853F8313098470020F8BD05F0C005B8
:10C7BC00AF4286F31188BFF36F8F0CBF6FF0770019
:10C7CC004FF0FF30F1E713B580240094FFF7CDFF55
:10C7DC0002B010BD10B41C240069CBB203FB0400E2
:10C7EC00002110BC10471046FEF7F4BC00F08AB9CB
:10C7FC00FDF7D4BD022804D0042804D10020FCF796
:10C80C00E7BF0120FBE77047436800205B68DB68EB
:10C81C000B607047436802EA01005B6821EA020181
:10C82C005860002099607047436800205B6859602D
:10C83C007047436800205B689960704743685A688A
:10C84C00136821EA03000B4050600020936070478E
:10C85C0010B503695868F8B1884219D19C6808680A
:10C86C00A142586000D19860002008602AB15A6833
:10C87C000A609A68596002B99960002010E0814200
:10C88C0006D10868206098688142EDD19C60EBE786
:10C89C00044600680028F2D1002AE8D16FF0150098
:10C8AC0010BDFDF7E3BF30B543681360057A4468EB
:10C8BC0004EBC504A34202D36FF0010030BD5C79D8
:10C8CC008C4201D00833F0E70020F7E743681B687F
:10C8DC00D3F83031704743681B68D3F88004C3F831
:10C8EC008004704742681368D3F84C0150B10020A3
:10C8FC00926A12780A70C3F84C01D3F84C210122C9
:10C90C009A6270474FF0FF30704713B501AA044686
:10C91C00FFF7C9FF002805DB019B2268197918680D
:10C92C00FDF7F6F902B010BD6FF08500704738B511
:10C93C00054600220121C620FCF7D6FBC620FCF7D9
:10C94C00B7FB6C680121E068FFF7DFFF6B681968C3
:10C95C006369C1F82435E28BA38BA07E1343228C30
:10C96C001343628C1343627E9BB20243207E0243CC
:10C97C001343C1F86C3569680B68D3F8002242F494
:10C98C008022C3F800220822C3F800254A6A01213C
:10C99C00C3F83C270022C3F840271965D3F830119F
:10C9AC000029FBD0C3F800256B680021D868FFF77D
:10C9BC00ACFF6D680021E8682C68FFF7A6FF082320
:10C9CC00C4F800352A7A52B9AB6AC4F8043701238B
:10C9DC00C4F80837C4F84C21D4F84C21A3620020C9
:10C9EC0038BD08B50220FCF755FF002008BD08B57E
:10C9FC0000F035F848B1002383F31188BFF36F8F33
:10CA0C000423184602DF6FF0040008BD00B589B09E
:10CA1C0006AB02930823039301AB04930423079101
:10CA2C00CDE9053004AA184602A9FDF709FC022835
:10CA3C00019B09D003280AD060B9181E18BF012029
:10CA4C00404209B05DF804FB6FF01500F9E76FF098
:10CA5C008500F6E74FF0FF30F3E700207047002029
:10CA6C00704703460020184700F086BA024610B5FE
:10CA7C00116891B1B1FA81F3C3F11F000123834016
:10CA8C0021EA0303D2E8EF4F8C4204D1C2E8EC3F19
:10CA9C00BCF1000FF6D1EBD110BD6FF00B00FBE732
:10CAAC0010B50368CB40DB0710D401238B40026820
:10CABC0043EA0201D0E8EF4F944204D1C0E8EC1FE6
:10CACC00BCF1000FF6D1F2D1002010BD6FF01500B3
:10CADC00FBE7FDF7FFBB10B1012802D07047FDF753
:10CAEC005DBCFDF70BBD18B1012803D100F00CB8EB
:10CAFC0000F008B8704708B5FDF734FDBDE80840F4
:10CB0C00FDF78CBCFDF71EBCFDF7C0BCF7B5164697
:10CB1C00DDE90847019001A81D46FDF75DFD019B6D
:10CB2C00B6F1000C18BF4FF0010C00EB83000B1E8C
:10CB3C0018BF0123002D43EA4C0314BF4FF00C0C1B
:10CB4C004FF0000C002C43EA0C0314BF4FF4706C34
:10CB5C004FF0000C002F43EA0C0314BF4FF4403C81
:10CB6C004FF0000CD0F8802043EA0C0322EA0303B8
:10CB7C0001B109780EB13678760019430DB12D78D4
:10CB8C00AD0031430CB12478240229430FB13F7816
:10CB9C003F040C433C43C0F8804003B0F0BD1FB5CC
:10CBAC000DF10F03019300238DF80F101A4619464F
:10CBBC000093FFF7ABFF05B05DF804FB10B504461E
:10CBCC000846FDF719FD04EB4004A08AC0F34010A1
:10CBDC0010BD10B504460846FDF70EFD04EB4004ED
:10CBEC00A08AC0F3400010BD10B504460846FDF7FE
:10CBFC0003FD04EB4004A08A400B10BD70B5044645
:10CC0C0008461646FDF7F8FC083034F810300D468F
:10CC1C00DA0509D5C3F3432304EBC3023146284696
:10CC2C0054F8333052689847A3682BB131462846E4
:10CC3C00E268BDE87040184770BD10B50446084660
:10CC4C00FDF7DAFC00B204EB4000838ADA051DD54F
:10CC5C00C3F3432123F4F853838204F1120204F149
:10CC6C00580032F8023F13F4807F03D0C3F3432300
:10CC7C0099420BD08242F4D1002204EBC1035A60DA
:10CC8C0004F16000BDE81040FFF70ABF10BDF0B51D
:10CC9C000446002001270546844695420AD1D4F863
:10CCAC00403133B10023C4F84031D4F8403140F462
:10CCBC008030F0BDEBB29B0003F580769B0807FA41
:10CCCC0003F3194208D054F806E0BEF1000F03D06C
:10CCDC0044F806C0A65918430135DEE738B50446BA
:10CCEC000D46FFF76BFFB0B12046FFF772FF90B90E
:10CCFC002046FFF779FF012322688340C2F80833EE
:10CD0C00236800B203EB8003D3F8102522F0030252
:10CD1C00C3F8102538BD2846BDE838400021FFF780
:10CD2C003EBF2DE9F0431746044685B00846FDF793
:10CD3C0063FCD7F800800E460546B8F1000F1FD0F3
:10CD4C002046FFF746FF18B12046FFF737FF30BBF0
:10CD5C0000230DF10F02CDE900338DF80E308DF864
:10CD6C000F30304643460DF10E01FFF7CFFE2AB2CD
:10CD7C0004EB4202938A23F0020343F001039382F3
:10CD8C007B68002B34D03146204693F80080D3F8D2
:10CD9C000490FFF71EFF28B1B9F1000F1FD06FF000
:10CDAC00150028E028B204EB4000838A23F460438A
:10CDBC0023F020038382B9F1000F10D0B8F1030FD8
:10CDCC00EDD87B6821685B6893F800C001EB8C019F
:10CDDC00B8F1000F12D1C1F81085C1F810852AB234
:10CDEC0004EB4202938A23F01C0343EA88039382E8
:10CDFC00BB6853BB002005B0BDE8F083D1F810250B
:10CE0C0022F00302C1F81025226802EB8C03D3F840
:10CE1C00102522F4473222F47C72C3F8102541F617
:10CE2C00F072D3F8101502EA061242EA08420A43DD
:10CE3C00C3F8102504EB4C03A3F86460838A43EA1F
:10CE4C004C3343F020038382C9E73146D3E90078A1
:10CE5C002046FFF7F2FE002FCCD063689F4206D02D
:10CE6C0004F16000FFF702FE002804DAC3E7A368B0
:10CE7C009845F5D1002004EBC003C3E901782DB22D
:10CE8C0004EB4505AB8AC0B243EA402343F48073FC
:10CE9C00AB82AFE7C0E90312704770B50446154684
:10CEAC00FFF78CFE48B10846FDF7A6FB04EB4004E7
:10CEBC000020A38A5B0B2B7070BD6FF01500FBE795
:10CECC0090F87400003818BF01207047FDF7CABBFA
:10CEDC002DE9F34104461746FFF770FE0D46266810
:10CEEC0000B32046FFF775FE8046D8B92046FFF701
:10CEFC007BFE05B2AD0005F5807246F80280216814
:10CF0C00B2582944D1F8102542F00102C1F810257D
:10CF1C002FB10122216802FA00F3C1F8043302B0E8
:10CF2C00BDE8F081D6F804332846DB035CBF4FF430
:10CF3C008033C6F80433FDF75FFB04EB4004A38A8F
:10CF4C00C3F38203042B11D0052B11D001A801953A
:10CF5C00FDF742FB019BC168D94001F00101023190
:10CF6C00284602B0BDE8F041FFF719BE0321F7E7F0
:10CF7C000221F5E7FFF7B2BE08B1FCF77DBB7047A5
:10CF8C0010B5436904463BB90020E268404253782F
:10CF9C0043F00103537010BD98470028F4D00028CB
:10CFAC00B8BF4042FF28A8BFFF20E3681870ECE729
:10CFBC0040B1C368587810F001001EBF1878B0FA61
:10CFCC0080F040097047EFF31183202383F312881C
:10CFDC00BFF36F8FFEE708B5FFF7F5FF202408B508
:10CFEC00EFF3118384F31288BFF36F8FFFF745FBC8
:10CFFC00F6E790F90E308B4201D0FEF7B9BA00205B
:10D00C007047EFF30580003818BF01207047D0E956
:10D01C00003213605A600023C0E90033704708B532
:10D02C00FFF7F5FF437B23F0020343730023836078
:10D03C0008BD38B504460D46FEF7F8F9637B43F09E
:10D04C0002036373E5B1A5602B689D4209D16B683F
:10D05C00C4E900531C606C6012E06A689A42F6D016
:10D06C001B68002BF3D094F90E2093F90E108A4212
:10D07C00F3D09142F1DD5A68C4E9003214605C606F
:10D08C0038BD10B5EFF31184202383F31288BFF35E
:10D09C006F8FFEF789F984F31188BFF36F8F10BD82
:10D0AC0038B5EFF31184202383F31288BFF36F8F0D
:10D0BC00002390F86C50427B80F86C302DB121B17C
:10D0CC0084F31188BFF36F8F38BD12F0280FF7D19E
:10D0DC0083680BB1FFF7A3FF437B23F00403437377
:10D0EC00FEF762F9ECE701211838FFF7D9BF08B554
:10D0FC000246FEF747FD70B1D0E904319B1A61EB93
:10D10C00E272B3F1004F72F1000104DA002AACBFF5
:10D11C001846002008BD6FF00040FBE7024638B50A
:10D12C00EFF31185202383F31288BFF36F8F03680D
:10D13C00CBB1FEF727FD04461046FEF735FD002265
:10D14C004FF000438442C0E9042306D1FEF722FDD0
:10D15C00FFF7CDFF0021FCF76FFF002085F311884E
:10D16C00BFF36F8F38BD6FF01500F7E708B5FEF70A
:10D17C0025FE08BD0A44431E914200D1704710B5EC
:10D18C0011F8014B914203F8014FF9D110BD024443
:10D19C000346934200D1704703F8011BF9E710B521
:10D1AC000139044632B111F8013F013A00F8013B54
:10D1BC00002BF7D10021FFF7EAFF204610BD0246F5
:10D1CC00014410B58A42134603D01C780132002C5E
:10D1DC00F8D1181A10BDF0B5C3F13707044603F0A7
:10D1EC001F031046FFB2082BE6B232D0102B3DD0F5
:10D1FC006508A40845EAC17544EA81748A082D19AA
:10D20C0042EB5102290941EA02716D1842EB1212EC
:10D21C00290A41EA02616D1842EB1222290C41EAFB
:10D22C0002416D1842EB1242AD1842F10002EC08BB
:10D23C0044EA4274D10804EB8402A6EB4205EDB239
:10D24C00092D0CD90134A5F10A0541F10001EDB20B
:10D25C0012E0E40806F0070544EA4174C9083035C9
:10D26C0054EA010200F8015BBDD1F0BD240906F0BF
:10D27C000F0544EA01740909092D84BFED19EDB2BB
:10D28C00EDE7000001480068704700007834012089
:08D29C0014B2FF7F0100000045
:10D2A400959F040000000000719604000000000037
:10D2B400E5A0040000000000000000000CD30400FE
:10D2C400000000004CD30400000000002CD3040034
:10D2D400000000006CD30400000000008CD30400A4
:10D2E4009599040000000000EFC90400000000004C
:10D2F4004D9604000000000067CA0400000000000E
:08D30400FBC904000000000059
:10D30C00DAE2040038DD040048DC0400B831012006
:10D31C00B43401201D970400000000000000000040
:10D32C00E7E2040054DD040024DC0400BA310120DF
:10D33C0008350120B99B040000000000000000002B
:10D34C00F3E2040068DD040024DC0400BC3101209D
:10D35C0014350120B99B04000000000000000000FF
:10D36C00FEE204007CDD040024DC0400BE3101205C
:10D37C0020350120B99B04000000000000000000D3
:10D38C0012E304009CDD040064DC0400C0310120C5
:10D39C002C3501203BC9040035C9040000000000F5
:10D3AC000000000061C604000000000061C604001B
:10D3BC000000000061C604000000000061C604000B
:10D3CC000000000061C604000000000061C60400FB
:10D3DC000000000061C604000000000061C60400EB
:10D3EC000000000061C604000000000061C60400DB
:10D3FC000000000061C604000000000061C60400CB
:10D40C000000000061C604000000000061C60400BA
:10D41C000000000061C604000000000061C60400AA
:10D42C000000000061C604000000000061C604009A
:10D43C000000000061C604000000000061C604008A
:10D44C000000000061C604000000000061C604007A
:10D45C000000000061C604000000000061C604006A
:10D46C000000000061C604000000000061C604005A
:10D47C000000000061C604000000000061C604004A
:10D48C000000000061C604000000000061C604003A
:10D49C000000000061C604000000000061C604002A
:10D4AC000000000061C604000000000061C604001A
:10D4BC000000000061C604000000000061C604000A
:10D4CC000000000061C604000000000061C60400FA
:10D4DC000000000061C604000000000061C60400EA
:10D4EC000000000061C604000000000061C60400DA
:10D4FC000000000061C604000000000061C60400CA
:10D50C000000000061C604000000000061C60400B9
:10D51C000000000061C604000000000061C60400A9
:10D52C000000000061C604000000000061C6040099
:10D53C000000000061C604000000000061C6040089
:10D54C000000000061C604000000000061C6040079
:10D55C000000000061C604000000000061C6040069
:10D56C000000000061C604000000000061C6040059
:10D57C000000000061C604000000000061C6040049
:10D58C000000000061C604000000000061C6040039
:10D59C000000000061C604000000000061C6040029
:10D5AC000000000061C604000000000061C6040019
:10D5BC000000000061C604000000000061C6040009
:10D5CC000000000061C604000000000061C60400F9
:10D5DC000000000061C604000000000061C60400E9
:10D5EC000000000061C604000000000061C60400D9
:10D5FC000000000061C604000000000061C60400C9
:10D60C000000000061C604000000000061C60400B8
:10D61C000000000061C604000000000061C60400A8
:10D62C000000000061C604000000000061C6040098
:10D63C000000000061C604000000000061C6040088
:10D64C000000000061C604000000000061C6040078
:10D65C000000000061C604000000000061C6040068
:10D66C000000000061C604000000000061C6040058
:10D67C000000000061C604000000000061C6040048
:10D68C000000000061C604000000000061C6040038
:10D69C000000000061C604000000000061C6040028
:10D6AC000000000061C604000000000061C6040018
:10D6BC000000000061C604000000000061C6040008
:10D6CC000000000061C604000000000061C60400F8
:10D6DC000000000061C604000000000061C60400E8
:10D6EC000000000061C604000000000061C60400D8
:10D6FC000000000061C604000000000061C60400C8
:10D70C000000000061C604000000000061C60400B7
:10D71C000000000061C604000000000061C60400A7
:10D72C000000000061C604000000000061C6040097
:10D73C000000000061C604000000000061C6040087
:10D74C000000000061C604000000000061C6040077
:10D75C000000000061C604000000000061C6040067
:10D76C000000000061C604000000000061C6040057
:10D77C000000000061C604000000000061C6040047
:10D78C000000000061C604000000000061C6040037
:10D79C000000000061C604000000000061C6040027
:10D7AC000000000061C604000000000061C6040017
:10D7BC000000000061C604000000000061C6040007
:10D7CC000000000061C604000000000061C60400F7
:10D7DC000000000061C604000000000061C60400E7
:10D7EC000000000061C604000000000061C60400D7
:10D7FC000000000061C604000000000061C60400C7
:10D80C000000000061C604000000000061C60400B6
:10D81C000000000061C604000000000061C60400A6
:10D82C000000000061C604000000000061C6040096
:10D83C000000000061C604000000000061C6040086
:10D84C000000000061C604000000000061C6040076
:10D85C000000000061C604000000000061C6040066
:10D86C000000000061C604000000000061C6040056
:10D87C000000000061C604000000000061C6040046
:10D88C000000000061C604000000000061C6040036
:10D89C000000000061C604000000000061C6040026
:10D8AC000000000061C604000000000061C6040016
:10D8BC000000000061C604000000000061C6040006
:10D8CC000000000061C604000000000061C60400F6
:10D8DC000000000061C604000000000061C60400E6
:10D8EC000000000061C604000000000061C60400D6
:10D8FC000000000061C604000000000061C60400C6
:10D90C000000000061C604000000000061C60400B5
:10D91C000000000061C604000000000061C60400A5
:10D92C000000000061C604000000000061C6040095
:10D93C000000000061C604000000000061C6040085
:10D94C000000000061C604000000000061C6040075
:10D95C000000000061C604000000000061C6040065
:10D96C000000000061C604000000000061C6040055
:10D97C000000000061C604000000000061C6040045
:10D98C000000000061C604000000000061C6040035
:10D99C000000000061C604000000000061C6040025
:10D9AC000000000061C604000000000061C6040015
:10D9BC000000000061C604000000000061C6040005
:10D9CC000000000061C604000000000061C60400F5
:10D9DC008CD30400D9C804000000000061C6040008
:10D9EC000000000061C604000000000061C60400D5
:10D9FC000000000061C604000000000061C60400C5
:10DA0C000000000061C604000000000061C60400B4
:10DA1C000000000061C604000000000061C60400A4
:10DA2C000000000061C604000000000061C6040094
:10DA3C000000000061C604000000000061C6040084
:10DA4C000000000061C604000000000061C6040074
:10DA5C000000000061C604000000000061C6040064
:10DA6C000000000061C604000000000061C6040054
:10DA7C001C310120AFC804000000000061C6040086
:10DA8C000000000061C604000000000061C6040034
:10DA9C000000000061C604000000000061C6040024
:10DAAC000000000061C604000000000061C6040014
:10DABC000000000061C6040045AD04006FCA0400FC
:10DACC000000000061C604000000000061C60400F4
:10DADC000000000061C604000000000061C60400E4
:10DAEC000000000061C604000000000061C60400D4
:10DAFC000000000061C604000000000061C60400C4
:10DB0C000000000061C604000000000061C60400B3
:10DB1C000000000061C604000000000061C60400A3
:10DB2C000000000061C604000000000061C6040093
:10DB3C000000000061C604000000000061C6040083
:10DB4C000000000061C604000000000061C6040073
:10DB5C000000000061C604000000000061C6040063
:10DB6C000000000061C604000000000061C6040053
:10DB7C000000000061C604000000000061C6040043
:10DB8C000000000061C604000000000061C6040033
:10DB9C000000000061C604000000000061C6040023
:10DBAC000000000061C604000000000061C6040013
:10DBBC000000000061C604000000000061C6040003
:10DBCC000000000061C6040003CB04006FCA04000F
:10DBDC000000000061C604000000000061C60400E3
:10DBEC000000000061C604000000000061C60400D3
:10DBFC000000000061C604000000000061C60400C3
:10DC0C00A4300120AFC804000000000061C604006D
:08DC1C000000000061C60400D5
:10DC2400E599040015C8040021C8040035C804009F
:10DC34003FC8040049C80400019C04005DC80400F6
:04DC440000000000DC
:10DC48007597040071C70400D3C7040000000000E2
:0CDC58000DC704000000000000000000E8
:0CDC6400F1C804009D9E0400E3C8040009
:10DC7000040000000F000000010000000800000088
:10DC80002000000070000000800000000D00000077
:10DC90000C0000000E000000500000008400000096
:10DCA000B8000000FFFFFFFFFFFFFFFF09000000BB
:04DCB000FFFFFFFF74
:10DCC00000A0104000820D40000405400500000047
:10DCD000040000000100000000000000000000003F
:10DCE0000338FDD87047000000000000000000006D
:10DCF0000338FDD87047000000300120000000000C
:10DD000006000100020000000CDD0400000000001D
:10DD1000CBE2040006000000E04F160000300120B6
:10DD2000D3E2040021000000E0EF0220D9960400B5
:10DD3000A99604000000000029980400A997040097
:10DD4000FDC70400F9C7040000A0104000820D4088
:10DD5000000405401F00000000A01040A430012076
:10DD60000000000000000000FFFF000000820D40E6
:10DD70001C3101200000000001000000FF0700002E
:10DD80000004054000000000000000000200000048
:10DD900000A0104000820D400004054000600C40CF
:10DDA0000000000000000000C8DD040000C2010007
:10DDB0000000D6010000000000000040000000004C
:10DDC000F6350120F535012000600C40D4DD04005B
:10DDD00002000000F4DD040004000000E4DD0400A3
:10DDE000040100002480000025800001268000023C
:10DDF0002780000324000000260000022506000101
:10DE00002706000300A0104000820D4000040540DA
:10DE100008000000020000000400000001000000F3
:10DE2000A4D20400ACD20400ECD20400F4D204006A
:10DE30000CD304000CD304002A2A2A20426F6F74EA
:10DE4000696E67206E524620436F6E6E6563742064
:10DE500053444B2076332E322E312D6438383837E8
:10DE600066366633326466202A2A2A0A002A2A2A5B
:10DE7000205573696E67205A6570687972204F5318
:10DE80002076342E322E39392D65633738313034CF
:10DE90006631353639202A2A2A0A0072302F61313C
:10DEA0003A2020307825303878202072312F6132A6
:10DEB0003A2020307825303878202072322F613394
:10DEC0003A20203078253038780A0072332F6134B8
